:020000040800F2
:1000000068080020E1010008AD020008A502000810
:10001000A90200089D020008290500080000000050
:10002000000000000000000000000000B502000811
:10003000A102000800000000B1020008B902000897
:10004000FB010008FB010008FB010008FB010008A0
:10005000FB010008FB010008FB010008FB01000890
:10006000FB010008FB010008FB010008FB01000880
:10007000FB010008FB010008FB010008FB01000870
:10008000FB010008FB010008FB010008FB01000860
:10009000FB010008FB010008FB010008FB01000850
:1000A000FB010008FB010008FB010008FB01000840
:1000B000FB010008FB010008FB010008FB01000830
:1000C000FB010008FB010008FB010008FB01000820
:1000D000FB010008FB010008FB010008FB01000810
:1000E000FB010008FB010008FB010008FB01000800
:1000F000FB010008FB010008FB010008FB010008F0
:10010000FB010008FB010008FB010008FB010008DF
:10011000FB010008FB010008FB010008FB010008CF
:10012000FB010008FB010008FB010008FB010008BF
:1001300000F002F800F044F814A696E8000CB2446F
:10014000B344DA4501D100F03BF8BAE80F000FA63E
:1001500096E83000A5EB040504EB0607AAEB0704BC
:10016000A7F101074FEA15154FEA3414A4F1010471
:10017000AC4201D300F024F813F0010F18BFFB1AB2
:1001800043F0010300F001F8DBE71847A01000007E
:10019000B010000070470000002300240025002656
:1001A000103A28BF78C1FBD8520728BF30C148BFDA
:1001B0000B6070471FB500F0B5FF1FBD10B510BD37
:1001C00000F031F81146FFF7F5FF00F0EFFA00F00C
:1001D0004FF803B4FFF7F2FF03BC00F057F800003C
:1001E0000948804709480047FEE7FEE7FEE7FEE7CB
:1001F000FEE7FEE7FEE7FEE7FEE7FEE70448054907
:10020000054A064B70470000BD0200083101000896
:1002100068000020680800206804002068040020AE
:10022000704770477047754600F02CF8AE460500E1
:100230006946534620F00700854618B020B5FFF701
:10024000DDFFBDE820404FF000064FF000074FF003
:1002500000084FF0000BAC46ACE8C009ACE8C009A0
:10026000ACE8C009ACE8C00921F007018D46704731
:1002700010B50446AFF300802046BDE81040FFF7FC
:10028000A8BF000000487047000000200149182066
:10029000ABBEFEE72600020070470000FEE700004C
:1002A00070470000FEE70000FEE700007047000016
:1002B000704700007047000000F038B982B04EF679
:1002C0008851CEF200010A6841F2040C42F4700237
:1002D000C4F2020C0A605CF8041C41F001014CF805
:1002E000041C00BF5CF8041C8907FBD5DCF8001077
:1002F00001F00C0108296FD100210191019A4F2AC8
:1003000006D800BF019A01320192019A502AF9D30E
:10031000DCF800200092009A22F0F0020092009A8D
:1003200042F080020092009ACCF8002001910199DD
:100330004F2905D801990131019101995029F9D32B
:10034000DCF800100091009921F0F0010091009973
:1003500041F0900100910099CCF80010002101912A
:10036000019A4F2A06D800BF019A01320192019AE0
:10037000502AF9D3DCF800200092009A22F0F00213
:100380000092009A42F0A0020092009ACCF800205D
:10039000019101994F2905D80199013101910199E4
:1003A0005029F9D3DCF800100091009921F0F001F8
:1003B0000091009941F0B00100910099CCF8001033
:1003C0000021019101994F2906D800BF01990131FF
:1003D000019101995029F9D3DCF8001021F00301B3
:1003E000CCF8001000210191019A12097C2A06D84C
:1003F000019A01320192019AB2F5FA6FF8D35CF8D2
:10040000042C4FF6FF73CFF6F6631A404CF8042C19
:100410004FF41F02CCF804205CF8042C22F4802254
:100420004CF8042CCCF80010CCF828105CF8042C04
:1004300042F480324CF8042C4FF6FE725CF8040C47
:10044000013A41F10003800301D4002BF6D15CF89E
:10045000040C800301D400BFFEE7DCF8180047F26B
:10046000000140F08050C4F20001CCF81800086888
:100470004FF6FF7240F440400860DCF80000CBF219
:10048000C372CCF80000DCF80000CCF80000DCF807
:10049000000040F48060CCF80000DCF8000020F49C
:1004A0004030CCF80000DCF8000040F44030CCF8DC
:1004B0000000DCF800001040CCF80000DCF8000080
:1004C00040F0006040F45010CCF800005CF8040CE0
:1004D00040F080704CF8040C5CF8040C8001FBD5F3
:1004E000086840F4803008604868C003FCD508689C
:1004F00040F40030086000BF48688003FCD5DCF899
:1005000000000190019820F003000190019840F054
:10051000020001900198CCF8000000BFDCF8000058
:100520000007FBD502B07047FEE7000040F2600014
:10053000C2F200000168002908BF70470168013954
:10054000016070472DE9F04182B0074643F2000494
:100550002A20C4F2010400F0ADF84FF0FE4001ADD6
:1005600001902846042100F0F1F82B2000F0A2F8B9
:100570004FF01F4001902846042100F0E7F82C209E
:1005800000F098F8A4F50058404604213E0A00F017
:1005900031F84046022100F02FF8FFB24FF4A04599
:1005A0002046022100F0E2FC0028F9D02046314626
:1005B00000F0DAFC2046802100F0D8FC0128F9D0B8
:1005C0002046022100F0D2FC0028F9D0204639460E
:1005D00000F0CAFC2046802100F0C8FC0128F9D0B8
:1005E000013DDDD14046042102B0BDE8F04100F0FC
:1005F00003B8000041617047016170472DE9F04781
:10060000CF0601F00F0C09D5042A05D1C26B4CF0BE
:10061000030C1A43C26301E04CEA020C00F1100E15
:1006200000F1140A00244FF001094FF00F080027D1
:100630000EE000BF166008FA04F225EA02020CFA86
:1006400004F52A4302600137082F04F104040CD09A
:1006500009FA07F212EA0306F5D00568282952467E
:10066000E8D04829E7D17246E4E7082400254FF096
:1006700001094FF00F080FE0176008FA05F226EAAB
:1006800002020CFA05F6324342600134102C05F1E7
:10069000040508BFBDE8F08709FA04F212EA03076F
:1006A000F3D0466828295246E6D04829E5D172465B
:1006B000E2E7000070B541F20004C4F2010405460F
:1006C00020460421FFF796FF20460221FFF792FF04
:1006D00004F500563046022100F048FC0028F9D00D
:1006E0003046294600F040FC3046802100F03EFCB8
:1006F0000128F9D020460421BDE87040FFF77CBFF7
:1007000070B541F20004C4F20104054620460421FC
:10071000FFF770FF20460221FFF76EFF04F5005639
:100720003046022100F022FC0028F9D0304629464C
:1007300000F01AFC3046802100F018FC0128F9D0A6
:1007400020460421BDE87040FFF756BF2DE9F04177
:1007500041F20008C4F201080D4606464046042155
:10076000FFF748FF40460221FFF746FFC5B108F5F5
:10077000005700BF3478013D3846022100F0F6FBF7
:100780000028F9D03846214600F0EEFB384680219B
:1007900000F0ECFB0128F9D0280406F10106E9D1AC
:1007A00040460421BDE8F041FFF726BF8AB043F67A
:1007B000000440F20260C4F2010400F09FFB40F22A
:1007C0000E6000F09BFBA4F5405840461821032220
:1007D0004FF40073FFF712FF4046042103224FF449
:1007E0008063FFF70BFF204600F024FC20464FF407
:1007F000E13100F0E5FB20460021002600F08AFCF4
:100800002046002100F074FC2046002100F05EFC30
:100810002046042100F062FC2046082100F070FC14
:10082000204600F045FC41F2E7170D25C0F6000711
:100830002046072100F042FC0028F9D0A9B220464A
:10084000013600F0F3FBBD5D412EF1D120460621BB
:1008500000F034FC0028F9D041F29E1700266925EB
:10086000C0F600072046072100F028FC0028F9D038
:10087000A9B22046013600F0D9FBBD5D482EF1D16A
:100880002046062100F01AFC0028F9D040F2026050
:1008900000F034FB40F2046000F030FB40F20C60EA
:1008A00000F02CFB404618210322A023FFF7A6FEF0
:1008B0004046042103224023FFF7A0FEA4F5205860
:1008C00040461021032207231027FFF797FE4046DA
:1008D0000421FFF791FE40460121FFF78DFE01AE96
:1008E000304600F063FB4FF48270002501904FF416
:1008F00000700797A4F50067CDE904053846314636
:1009000002950395069500F037FB384600F026FB6C
:1009100073270FF2AC4600BF2046072100F0CEFB44
:100920000028F9D0B9B22046013500F07FFB775D91
:100930001D2DF1D12046062100F0C0FB0028F9D082
:1009400040460121FFF758FE00250195019809282E
:1009500015D849F63F4049F6404105E0019A013279
:100960000192019A0A2A0AD20995099A8242F5D877
:10097000099A01320992099A8A42F9D3EEE7404670
:100980000121FFF737FE01950198132817D80020A1
:1009900049F63F4149F6404206E000BF019B013362
:1009A0000193019B142B0AD20990099B8B42F5D825
:1009B000099B01330993099B9342F9D3EEE7404623
:1009C0000121FFF719FE002501950198772816D817
:1009D00049F63F4049F6404106E000BF019A013226
:1009E0000192019A782A0AD20995099A8242F5D889
:1009F000099A01320992099A8A42F9D3EEE7012055
:100A0000FFF758FE01950198952816D8002049F661
:100A10003F4149F6404205E0019B01330193019BB0
:100A2000962B0AD20990099B8B42F5D8099B01337A
:100A30000993099B9342F9D3EEE71120FFF73AFEA1
:100A400000260196019880087C2818D849F63F4076
:100A500049F6404107E000BF019A01320192019A34
:100A6000B2F5FA7F0BD20996099A8242F4D800BFF8
:100A7000099A01320992099A8A42F9D3ECE742F6BF
:100A800001472D25B120ADF804708DF80650FFF711
:100A900011FE0DF1040840460321FFF757FEB22076
:100AA000ADF804708DF80650FFF704FE40460321B0
:100AB000FFF74CFE42F60140C0F22D10019042F6C5
:100AC0002C50ADF80800B320FFF7F4FD4046062196
:100AD000FFF73CFEB420FFF7EDFD0720FFF710FE07
:100AE00040F2A220ADF8040084208DF80600C0205A
:100AF000FFF7E0FD40460321FFF728FEC120FFF786
:100B0000D9FDC520FFF7FCFD0A20ADF80400C22086
:100B1000FFF7D0FD40460221FFF718FE42F68A207B
:100B2000ADF80400C320FFF7C5FD40460221FFF7E2
:100B30000DFE4EF68A60ADF80400C420FFF7BAFD42
:100B400040460221FFF702FEC520FFF7B3FD0E204D
:100B5000FFF7D6FD2020FFF7ADFD3A20FFF7AAFDF5
:100B60000520FFF7CDFD3620FFF7A4FD0020FFF79D
:100B7000C7FD2920FFF79EFD09960998632816D81E
:100B8000002049F63F4149F6404205E0099B013308
:100B90000993099B642B0AD20890089B8B42F5D8D5
:100BA000089B01330893089B9342F9D3EEE741F287
:100BB000461600256C27C0F6000600BF2046072118
:100BC00000F07CFA0028F9D0B9B22046013500F0D7
:100BD0002DFA775D572DF1D12046062100F06EFAEF
:100BE0000028F9D000200025FFF7ACFC0195019802
:100BF00040F2DB51884218D849F63F4049F640415F
:100C000040F2DC5206E000BF019B01330193019BDF
:100C100093420AD20995099B8342F5D8099B013377
:100C20000993099B8B42F9D3EEE700256E276CA64A
:100C30002046072100F042FA0028F9D0B9B2204638
:100C4000013500F0F3F9775D322DF1D12046062110
:100C500000F034FA0028F9D06EA64FF0000949F6EA
:100C60003F4B49F640450FF2BC1A00BF4FF47840A5
:100C7000FFF768FC00274FF0520800BF204607210D
:100C800000F01CFA0028F9D01FFA88F1204601373D
:100C900000F0CCF916F80780052FEFD12046062189
:100CA00000F00CFA0028F9D0CDF804900198C008A3
:100CB0007C284ED94FF4FC60B046FFF743FC002778
:100CC000472600BF2046072100F0F8F90028F9D098
:100CD000B1B22046013700F0A9F950A0C65D072F38
:100CE000F0D100BF2046062100F0E8F90028F9D035
:100CF000CDF804900198C0087C283ED91F20FFF74A
:100D000021FC0027422600BF2046072100F0D6F92B
:100D10000028F9D0B1B22046013700F087F91AF85F
:100D20000760062FF0D100BF2046062100F0C6F96B
:100D30000028F9D0CDF8049001984646C0087C28D8
:100D400094D82FE00198013001900198B0F57A7F96
:100D5000B0D2CDF8249009985845F3D809980130BD
:100D600009900998A842F9D3ECE700BF0198013037
:100D700001900198B0F57A7FC0D2CDF824900998FF
:100D80005845F3D80998013009900998A842F9D339
:100D9000ECE700BF0198013001900198B0F57A7F2F
:100DA000BFF464AFCDF8249009985845F2D800BF3D
:100DB0000998013009900998A842F9D3EAE700BFE1
:100DC0007370693020696E697420646F6E652E20BF
:100DD0006C636420696E69742E2E2E0D0A0000006B
:100DE0006E6F77206C6F6F7020522F472F42207EDE
:100DF000317320656163682E2077617463682073A6
:100E0000657269616C2076732073637265656E2EFE
:100E10000D0A00005245440D0A00000047524545A6
:100E20004E0D0A00424C55450D0A000010B541F226
:100E30000404C4F20204216801F00C01082941F203
:100E40000021C0F27A012BD12368DB0304D440F6E1
:100E5000001CC0F23D0C0DE0A36AD4F800C05B009A
:100E600046F60043C0F2DC2358BF0B46CCF34041AA
:100E700023FA01FC23682168C3F3834E102303EA9D
:100E8000D15123688E44202101EA536171440B46FD
:100E90003F2918BF01330F2938BF8B1C03FB0CF10E
:100EA000236812A2C3F30313D35C226841F23E1CF1
:100EB000C2F30222C0F6000C1CF802E022680328EC
:100EC00012D821FA03F3DFE800F00D0204071846F8
:100ED00010BD23FA0EF010BDC2F3C2201CF80000B2
:100EE00023FA00F1084610BD002010BD00000000EC
:100EF00000000000010203040607080941F2000394
:100F000000F01F018009C4F202034FF0010CC25827
:100F10000CFA01F11143C1507047000041F2000387
:100F200000F01F018009C4F202034FF0010CC25807
:100F30000CFA01F122EA0101C150704741F20003AD
:100F400000F01F018009C4F202034FF0010CC258E7
:100F50000CFA01F11143C15070470000016841F0E3
:100F60004001016070470000C16070478068084020
:100F700018BF01207047000070B50268D1E902E493
:100F800002F4415CD1E90032D1E9045643EA0C0392
:100F90001A4342EA0E02224389692A43324311432B
:100FA0000160C16921F40061C16170BD0021C0E927
:100FB0000011C0E90211C0E904118161704700000D
:100FC000B0B5044644F6FF30C4F200000D4684423A
:100FD0004FF0000013DD44F60041C4F200018C42E2
:100FE00019D045F20001C4F200018C4213D043F63F
:100FF0000001C4F201018C4210D103200CE044F244
:101000000041C4F200018C4205D044F60001C4F254
:1010100000018C4202D10220FFF708FF00EB5500CF
:10102000B0FBF5F080B2A060B0BD00006FF35F21AF
:101030004160704710B544F6FF31C4F200018842A8
:1010400015DD44F60041C4F2000188421ED045F28D
:101050000001C4F2000188421BD043F60001C4F233
:101060000101884218BF10BD40F20E3416E044F270
:101070000041C4F2000188420ED044F60001C4F2DF
:101080000001884212D140F2124407E040F21344BA
:1010900004E040F2144401E040F211442046FFF71E
:1010A0004DFF2046BDE81040FFF738BF10BD0000DF
:1010B000C16841F40051C160704700008A091058AE
:1010C00001F01F01C84000F001007047C26822F41F
:1010D000C062C260C2681143C1607047C26801F05B
:1010E000040122F00402C260C2681143C16070476B
:1010F000026922F4405202610269114301617047A2
:10110000C26801F0080122F00802C260C2681143FF
:10111000C1607047C26822F48052C260C268114345
:10112000C1607047F1EE100A4FF6FF71C0F2C03196
:1011300020EA010040F04070E1EE100A7047000024
:101140000000010203046C636420696E697420640A
:101150006F6E652E2066696C6C20424C41434B20BB
:101160002D3E2073637265656E204D555354207477
:1011700075726E20424C41434B2028776869746534
:101180002D3E626C61636B2070726F7665732066B2
:10119000696C6C20776F726B73292E0D0A0069667B
:1011A00020796F7520736565207468697320627596
:1011B000742073637265656E207374617973207730
:1011C00068697465202D3E2077617665666F726D63
:1011D000206E6F74207265616368696E672070614C
:1011E0006E656C2E0D0A000D0A3E3E3E3E3E3E3EB2
:1011F0003E3E3E20414C4956453A2070726F677220
:10120000616D2072756E6E696E672C205350493087
:1012100020696E6974207374617274203C3C3C3C9C
:101220003C3C3C3C3C3C0D0A000000003C120008E9
:0C12300000000020680800009801000881
:0400000508000131BD
:00000001FF
