:020000040800F2
:10000000A059002005020008DD080008D5080008F6
:10001000D9080008CD080008050C00080000000001
:10002000000000000000000000000000E5080008DB
:10003000D108000800000000E1080008E9080008F5
:100040001F0200081F0200081F0200081F0200080C
:100050001F0200081F0200081F0200081F020008FC
:100060001F0200081F0200081F0200081F020008EC
:100070001F0200081F0200081F0200081F020008DC
:100080001F0200081F0200081F0200081F020008CC
:100090001F0200081F0200081F0200081F020008BC
:1000A0001F0200081F0200081F0200081F020008AC
:1000B0001F0200081F0200081F0200081F0200089C
:1000C0001F0200081F0200081F0200081F0200088C
:1000D0001F0200081F0200081F0200081F0200087C
:1000E0001F0200081F0200081F0200081F0200086C
:1000F0001F0200081F0200081F0200081F0200085C
:100100001F0200081F0200081F0200081F0200084B
:100110001F0200081F0200081F0200081F0200083B
:100120001F0200081F0200081F0200081F0200082B
:1001300000F002F800F057F814A696E8000CB2445C
:10014000B344DA4501D100F04EF8BAE80F000FA62B
:1001500096E83000A5EB040504EB0607AAEB0704BC
:10016000A7F101074FEA15154FEA3414A4F1010471
:10017000AC4201D300F037F813F0010F18BFFB1A9F
:1001800043F0010300F001F8DBE71847D86D0300E6
:10019000F86D0300103A24BF78C878C1FAD8520726
:1001A00024BF30C830C144BF04680C6070470000F1
:1001B000704700000023002400250026103A28BFC5
:1001C00078C1FBD8520728BF30C148BF0B607047C9
:1001D000642900F02581002070471FB52BF09CF9A1
:1001E0001FBD10B510BD00F036FB1146FFF7F5FF3F
:1001F00023F0C8F900F054FB03B4FFF7F2FF03BC8F
:1002000000F05CFB0948804709480047FEE7FEE72D
:10021000FEE7FEE7FEE7FEE7FEE7FEE7FEE7FEE7B6
:1002200004480549054A064B704700009909000833
:1002300031010008A0510020A0590020A055002045
:10024000A055002053EA020C00F069802DE9F04B24
:100250004FF00006002B1FBFB3FA83F503FA05F435
:1002600024FA05F65E4012BF1643B2FA82F502FA8E
:1002700005F4C5F120051EBF22FA05FC44EA0C0472
:10028000203556EA044C4FEA144418BF641C4FF062
:1002900000084FF00009904271EB030C39D300299C
:1002A00019BFB1FA81F701FA07F6B0FA80F700FA40
:1002B00007F6C7F120071EBF20FA07FC46EA0C0626
:1002C0002037B6FBF4FCA7EB0507103F07F01F0B28
:1002D000CBF120062CFA06F60CFA0BFB44BFB34612
:1002E0000026202FA4BF5E464FF0000B5BEA060CF1
:1002F00008BF4FF0010B19EB0B0948EB0608ABFBED
:10030000027C06FB02CC0BFB03CCC01B71EB0C0187
:10031000C1E70B46024641464846BDE8F08B13B59F
:10032000084318BF4FF0FF300146AFF30080BDE82F
:100330001C40704753EA020C23D010B54C1084EADD
:10034000530404D54042C1F1000138BF491E1B428D
:1003500004D55242C3F1000338BF5B1EFFF772FFA2
:1003600014F0804F04D04042C1F1000138BF491E53
:1003700014F0004F04D05242C3F1000338BF5B1E9B
:1003800010BD13B540424FF0000070EB0104B8BF40
:10039000012001F0004100281CBF6FF000414FF028
:1003A000FF30AFF300801CBD0FB41CB5074B06AA8D
:1003B0007B4469460090059800F035FA00206946B4
:1003C00000F044FA1CBC5DF814FB00009904000026
:1003D00070B5044685690068C10601D5302600E085
:1003E0002026C00707D070BDD4E9012130469047D0
:1003F000206A401C20626D1EF6D570BD70B50446A3
:1004000085690078C00707D170BDD4E9012120209B
:100410009047206A401C20626D1EF6D570BD00001A
:100420002DE9F0410646002410687529314616A5CD
:1004300010D0AFF30080002802DA404213A507E095
:1004400031688A0701D512A502E0490704D511A534
:10045000012401E0AFF3008000210A2206F1240705
:1004600009E0B0FBF2FCB0FBF2F302FB1C00303001
:1004700078541846491C0028F3D123462A463046B2
:10048000BDE8F04100F071B9000000002D0000004F
:100490002B000000200000002DE9F05F8946044693
:1004A0004FF0000ADFF824B1FB44C0F820A020463A
:1004B000E168884700287DD0252806D0D4E90121AD
:1004C0009047206A401C2062F1E700255F462046E5
:1004D000E16888472028064607DB312E05D2B81987
:1004E00010F8200C08B10543F1E7A80701D525F065
:1004F0000405C4F81CA00027C4F818A02A2E09D0AF
:1005000030462BF002F838B304EB8708303EC8F8C9
:10051000186019E059F8041B204604EB870291612A
:10052000E1688847012F064618D1E069002820DAE3
:1005300025F020051DE0D8F8180000EB800006EB40
:1005400040003038C8F818002046E1688847064661
:100550002AF0DBFF0028EED1012F0AD02E2E08D181
:100560002046E16888477F1C0646022F45F020059B
:10057000C4DBA069002803DA404245F00105A06110
:10058000E80701D025F01005A6B1A6F14100192811
:1005900002D8203645F400654A463146204625609B
:1005A0004D46FFF715FE60B1012807D0ED1D25F07F
:1005B000070000E007E000F1080978E705F1040909
:1005C00075E730467AE7206ABDE8F09F86B0020002
:1005D00010B5203AC0F00B80B1E81850A0E81850D0
:1005E000B1E81850A0E81850203ABFF4F5AF5FEA20
:1005F000027C24BFB1E81850A0E8185044BF18C9C5
:1006000018C0BDE810405FEA827C24BF51F8043B6B
:1006100040F8043B08BF7047D20728BF31F8023BBF
:1006200048BF11F8012B28BF20F8023B48BF00F853
:10063000012B704702F0FF0343EA032242EA024221
:1006400000F00AB802F0FF0343EA032242EA024242
:1006500000F024B84FF000020429C0F0128010F01E
:10066000030C00F01B80CCF1040CBCF1020F18BF8E
:1006700000F8012BA8BF20F8022BA1EB0C0100F021
:100680000DB85FEAC17C24BF00F8012B00F8012BF4
:1006900048BF00F8012B70474FF0000200B5134629
:1006A00094469646203922BFA0E80C50A0E80C5092
:1006B000B1F12001BFF4F7AF090728BFA0E80C5043
:1006C00048BF0CC05DF804EB890028BF40F8042B3C
:1006D00008BF704748BF20F8022B11F0804F18BFA9
:1006E00000F8012B7047000030B44FF0013C50F887
:1006F000042B51F8043BCCFA52F4D51A20D1FCB9A2
:1007000050F8042B51F8043BCCFA52F4D51A17D107
:10071000B4B950F8042B51F8043BCCFA52F4D51A72
:100720000ED16CB950F8042B51F8043BCCFA52F4BA
:10073000D51A05D1002CDAD030BC4FF0000070473C
:1007400029BAB1FA81F111F01801D1F120008440E9
:10075000F2D1CA40CB4012F0FF0213F0FF0330BCCD
:10076000D01A70477047704770472DE9F0470D4623
:1007700099469246044600F124080168880604D58B
:10078000E06921F01001216000E00120A84201DDB4
:10079000471B00E00027A1697A1902EB0900081A3B
:1007A000A0612078C00602D42046FFF711FE002683
:1007B00008E0D4E901211AF806009047206A401C9D
:1007C000761C20624E45F4DB2078C0060AD5204610
:1007D000FFF7FEFD06E0D4E9012130209047206AB2
:1007E000401C2062381EA7F10107F4DC07E0D4E9C1
:1007F000012118F805009047206A401C2062281E3D
:10080000A5F10105F3DC2046FFF7F8FD207800068E
:1008100002D50220BDE8F0870120FBE701694A1CF0
:1008200002610878704700B58FB0CDE90131002131
:10083000059105497944CDE9031011466846FFF753
:100840002BFE0FB000BD0000E5FFFFFF0A6802F8B5
:10085000010B0A607047754600F02CF8AE460500A3
:100860006946534620F00700854618B020B5FFF7CB
:10087000D7FCBDE820404FF000064FF000074FF0D6
:1008800000084FF0000BAC46ACE8C009ACE8C0096A
:10089000ACE8C009ACE8C00921F007018D467047FB
:1008A00010B50446AFF300802046BDE81040FFF7C6
:1008B000A3BC0000004870479000002001491820A8
:1008C000ABBEFEE72600020070470000FEE7000016
:1008D00070470000FEE70000FEE7000070470000E0
:1008E000704700007047000080B503F0B7FC01209E
:1008F000BDE8804022F0DEB941F20400C4F20200FB
:10090000016801F00C01082941F20021C0F27A01CE
:100910002BD10268D20304D440F6001CC0F23D0C77
:100920000CE0826A0368520046F60042C0F2DC2204
:1009300058BF0A46C3F3404122FA01FC026803682B
:100940001021C2F3834201EAD351114402682023EB
:1009500003EA5262114402220E2988BF0122114487
:100960003D2988BF3F2101FB0CF140F20002C2F299
:1009700000021160006804A1C0F30310085C116854
:1009800021FA00F010607047000000000000000035
:10099000010203040607080982B04EF68851CEF220
:1009A00000010A6841F2040C42F47002C4F2020C25
:1009B0000A605CF8041C41F001014CF8041C00BF03
:1009C0005CF8041C8907FBD5DCF8001001F00C0171
:1009D00008296FD100210191019A4F2A06D800BF42
:1009E000019A01320192019A502AF9D3DCF80020D1
:1009F0000092009A22F0F0020092009A42F08002E7
:100A00000092009ACCF80020019101994F2905D855
:100A100001990131019101995029F9D3DCF80010B5
:100A20000091009921F0F0010091009941F09001AE
:100A300000910099CCF8001000210191019A4F2AF1
:100A400006D800BF019A01320192019A502AF9D3C7
:100A5000DCF800200092009A22F0F0020092009A46
:100A600042F0A0020092009ACCF800200191019976
:100A70004F2905D801990131019101995029F9D3E4
:100A8000DCF800100091009921F0F001009100992C
:100A900041F0B00100910099CCF8001000210191C3
:100AA00001994F2906D800BF01990131019101999F
:100AB0005029F9D3DCF8001021F00301CCF8001024
:100AC00000210191019A12097C2A06D8019A01326B
:100AD0000192019AB2F5FA6FF8D35CF8042C4FF644
:100AE000FF73CFF6F6631A404CF8042C4FF41F0244
:100AF000CCF804205CF8042C22F480224CF8042C5E
:100B0000CCF80010CCF828105CF8042C42F48032A9
:100B10004CF8042C4FF6FE725CF8040C013A41F1DB
:100B20000003800301D4002BF6D15CF8040C800391
:100B300001D400BFFEE7DCF8180047F2000140F0E6
:100B40008050C4F20001CCF8180008684FF6FF721C
:100B500040F440400860DCF80000CBF2C372CCF8EF
:100B60000000DCF80000CCF80000DCF8000040F4E5
:100B70008060CCF80000DCF8000020F44030CCF8B5
:100B80000000DCF8000040F44030CCF80000DCF855
:100B900000001040CCF80000DCF8000040F00060DD
:100BA00040F45010CCF800005CF8040C40F0807069
:100BB0004CF8040C5CF8040C8001FBD5086840F488
:100BC000803008604868C003FCD5086840F40030F5
:100BD000086000BF48688003FCD5DCF80000019085
:100BE000019820F003000190019840F0020001906C
:100BF0000198CCF8000000BFDCF800000007FBD52E
:100C000002B07047FEE70000B0B540F6F475C2F2DE
:100C1000000505F1AC042046582101F037F843F2F5
:100C20007130C0F600002121002222F07FF8C5F8C3
:100C3000A800012085F8A400204601F003F8014631
:100C4000D5F8A80011B122F0A3F901E022F08CF947
:100C50000020A5F8A400B0BDD1F800C093689C4561
:100C6000C2BFFF2358B270472DE9F0438E68156864
:100C7000AE4207DB4E68D568AE4203DCCE685568ED
:100C8000AE4204DAFF23BDE8F04358B2704716685D
:100C9000B4450ADB4E685568AE4206DB8E689E425C
:100CA00003DCCB68D668B34251DDD1E9013E55681B
:100CB000CC689D42A4EB0304D1BF0023C0E900C36C
:100CC000C0E902E50123D5684E68671B3744012F50
:100CD0000FDBCF68BD420CDA0F6806EB040900EBAE
:100CE00003161C01D1F8088001330751341D84E834
:100CF000200356684D68D768CC68AE42C8BF3546F9
:100D0000A742B8BF3C46AC42AEEB0C0C0EDDD2F8AD
:100D100000E00E68B64509DD00EB03174FEA031843
:100D2000013340F80860C7E9015EFC609268096819
:100D3000ACEB02070F44012FA5DB614400EB031766
:100D40001E0101338251C7E90151FC609BE700237A
:100D500099E7000070B5034691E8015092E87000F1
:100D6000C968A042D268C8BF0446AC45C8BF654642
:100D7000B645B8BF76469142B8BF0A460020B44295
:100D80004FF0000183E87000D8BF01219542D8BF21
:100D900001200840DA6070BD2DE9F04383B0076898
:100DA0000B689F4230DB45684B689D422CDB8668B0
:100DB0008B689E4228DCC468C868844224DC3AB34D
:100DC00001AB884608461946CDE90175914600F009
:100DD00079F8C8B101A940464A46CDE9016500F05D
:100DE00071F888B101A940464A46CDE9017400F086
:100DF00069F848B101A940464A46CDE9016400F0CE
:100E000061F803B0BDE8F083002003B0BDE8F083D3
:100E1000012003B0BDE8F08302688B689A420DDCC4
:100E200082680B689A4209DB4268CB689A4205DC0B
:100E3000C06849688842A4BF0120704700207047FD
:100E40002DE9F04383B086680B689E420BDBC768D0
:100E50004B689F4207DB04688B689C4203DC456853
:100E6000C868854203DD012003B0BDE8F083CAB144
:100E700001AB884608461946CDE90145914600F088
:100E800021F878B901A940464A46CDE9016500F04C
:100E900019F838B901A940464A46CDE9014700F0A2
:100EA00011F818B1002003B0BDE8F08301A9404655
:100EB0004A46CDE9016700F005F880F0010003B073
:100EC000BDE8F0832DE9F0410B680568AB420BDB10
:100ED000D0F808E0734507DC4968D0F804C06145E4
:100EE00002DBC068814202DD0020BDE8F081012AFA
:100EF00030DBAEEB0504013404EBD476A0EB0C043C
:100F0000013404EBD4774FEA66087C10B8EB670F26
:100F1000B8BF7410A242B8BF14466619B34204EBBE
:100F20000C02D8BF914218DDB342A0EB040024DCD0
:100F3000814222DB6700214400EB670005EB670676
:100F4000081A44F31E029B1B404302FB02F103FB01
:100F5000030249E00120BDE8F081620005EB620771
:100F60000CEB620244F31E00891ADB1B00FB00F24B
:100F700001FB01F003FB03011EE0AEEB0405AB42F5
:100F8000A8BF81421EDAAB424FF0010018DB91424C
:100F9000C8BFBDE8F081281BAEEB000202EBD272A5
:100FA000571000EB62000CEB6202891A181A4943D1
:100FB00000FB001107FB07F20020914298BF0120BF
:100FC000BDE8F0812A1BAEEB020707EBD77721447F
:100FD00000EB670002EB6702081A7E109A1A404382
:100FE00006FB06F102FB020200208A4298BF0120A4
:100FF000BDE8F08170B591E8085092E87000C968CA
:10100000A342D268B8BF1C46AC45B8BF6546B645DA
:10101000C8BF76469142C8BF0A4680E87000C260E9
:1010200070BD00002DE9F04F9BB040F6F478C2F29D
:10103000000828B1C168C8F8101021F095FF03E03E
:101040000BF044FDC8F81000D8F81000002800F09C
:101050003983416A002900F035830A69002A00F0CB
:101060003183C968002900F02D83342100220BF060
:10107000EDFDD8F81000D0F8B0021EF07FF8D8F8D7
:101080001000D0F8B402002818BF1EF077F8D8F886
:101090001000D0F8BC021EF071F8D8F81000D0F89B
:1010A000C0021EF06BF8D8F81000D0F8C4021EF091
:1010B00065F8D8F81000D0F8B012002900F0F782D7
:1010C000D0F85C1200295ED000270DF12C0A4FF0F9
:1010D000010906E0D8F810000137D0F85C128F4201
:1010E00051D2384490F83C020028F3D1D8F81010BF
:1010F000D1F85C020028EDD000243C2508E000BFB8
:10110000D8F810100134D1F85C0210358442E1D2D5
:10111000A742F5D0081990F83C020028F0D101EB65
:1011200007103C302944FFF777FE0028E8D0D8F8B4
:10113000100000EB07113C3142195046FFF75AFFEF
:10114000504608F0E9FCD8F81010834601EB071070
:101150003C3008F0E1FCD8F810100646481908F0B9
:10116000DBFC30448345CBD2D8F810000DF12C0CB9
:1011700000EB07119CE84C103C31204481E84C10F6
:1011800080F83C92BCE7D8F8100090F8391001299B
:1011900040F0CA800BF040FD002800F0C580D8F870
:1011A000100000F5197000F0DDFD002840F0BC8053
:1011B000D8F810403A21204600220BF047FDE16AA2
:1011C00011B12046884702E0206B0028FCD10020A6
:1011D000606320463B2100220BF038FDD8F8100058
:1011E000416AC2690591914208BF026A04920BF0FC
:1011F00081FCD8F81010039008460BF0F5FC0BAEFC
:10120000029030464021FFF747FAD8F81000D0F896
:101210005C12002959D0A6F110014FF0000B4FF0DD
:10122000000A06910AE000BFD8F810000AF1010A8E
:10123000D0F85C121FFA8AFB594546D900EB0B0126
:1012400091F83C120029EFD100F5197000F0FAFC7A
:101250000028E9D007460CE0D8F81000394600F520
:10126000197000F089FD384614F01EFF002C274647
:10127000DAD0D8F81000394600F5197000F0F8FC03
:10128000D8F81010044601EB0B1000F13C02304678
:101290003946FFF7E1FC05460130E7D0012DDBDBE5
:1012A000DDF81890D8F81000394600F5197000F0F4
:1012B0000FFD59F8101F013D016009F104030ECB29
:1012C000C360C0E90112EDD1C6E70021CDE90711E5
:1012D000039900F5197001390991029901390A91B0
:1012E00000F0B0FCDDE90476B8B1044607AD00BFFC
:1012F000204621462A46FFF72DFD304621463A4634
:1013000023460CF0D3F8D8F81000214600F51970E8
:1013100000F0AEFC04460028EAD1D8F81000002105
:1013200000F5197000F054FCD8F81000D0F85C12E9
:10133000002900F06E8100BF4C1E06D4014491F8D4
:101340003B1200292146F7D100E00024362100227B
:101350000BF07CFCD8F8100090F8381090F83A2088
:1013600001F0FE0180F8381090F8381042F00202C7
:1013700001F0FD0180F83810D0F85C1280F83A20B6
:101380000129C0F240810DF12C094FF0000A0494AC
:101390001DE090F8381090F8382001F0010102F0BB
:1013A000FD0242EA410180F83810069B0FCBA8618C
:1013B000E9612A626B62284622F032FED8F81000FA
:1013C0000AF1010AD0F85C128A4580F21C8100EB18
:1013D0000A0191F83C120029F0D1A24505D190F8FC
:1013E000381041F0010180F8381090F8381000EB07
:1013F0000A1201F0FD0180F83810D0F8A052416ABD
:10140000296090F83910002902F13C0106913FD083
:101410004FF0000BC5E901BB0BF06CFB0138E86035
:10142000D8F810000BF0E0FBD5E90062D5E90273B3
:10143000411E2961297D9A1A0132C31B3046CDF81D
:1014400000B00CF011FB002800F0DA80D8F8100092
:101450000BF050FBD8F81010461E08460BF0C4FBEA
:10146000471E4846002100223346009708F08AFBB9
:10147000D8F8100090F8391001298AD002299DD19E
:1014800090F838100BAB41F0020180F838108DE76E
:10149000D1E9004BD1E902960F460BF0A5FB86423D
:1014A00001DAF86804E0D8F810000BF09DFB013871
:1014B000D8F81070059097F83B000BF055F900280C
:1014C000A9EB04000CBF97F83B1010210130A6EBEC
:1014D0000B0202F101090CF029FB796A0BACC96817
:1014E000B1FBF0F04845B8BF814600204F460D9053
:1014F000CDE90B00D8F81000A7F1010B30212246EE
:10150000CDF838B00BF0A2FB0E980C99461C701A5F
:10151000484503DD012F5F46ECDC00E0BB46069B3F
:101520004FF00009D3F804C0BBF1000FD8BF4E46FE
:1015300006EB0C00059F0138B84237DCACF1010422
:10154000A7EB060B0AE000BF284622F069FD059FC5
:1015500006EB0900069BB8424C4625DCD8F8100083
:101560001A68406A9B68611C05F1080C06EB0409C7
:10157000C5E900028CE80A02C5E90621297D9A1A0C
:10158000C5E9083901323346002700970CF06CFAA0
:10159000A0B3A345D8D1D8F8100090F8381041F086
:1015A000020180F83810CFE709F1010C049C4F4587
:1015B0000DF12C093FF402AFD8F810001A68406A08
:1015C0009B6885E80510C5E90337C5E9062CC5E920
:1015D0000837297D9A1AA7EB0C0301320133002743
:1015E00000970CF041FA68B1D8F8100090F8381064
:1015F00041F0020180F83810DDE600BFFEE700BFD1
:10160000FEE700BFFEE790F83A1001F0FD0180F818
:101610003A10D8F81000D0F85C1200294AD03721CF
:1016200000220BF013FBD8F810000BF0F5FA60B3B2
:10163000D8F8100090F83910012926D129F012FFAE
:10164000D8F81000D0F85C12F9B100243C2507E06E
:10165000D8F810000134D0F85C1210358C4214D246
:10166000011991F83C120029F2D100F5197000F02F
:101670005FFBD8F810104A5929440260D1E90123D0
:10168000C968C0E90123C160E2E7D8F81000002171
:101690003C304FF4007217F0E5FFD8F8100000213D
:1016A00000F50F70202217F0DDFFD8F810000021A0
:1016B000C0F85C1200F0FEF8D8F8100035210022C6
:1016C0000BF0C4FA1BB0BDE8F08F0000B0B540F6D7
:1016D000F474C2F2000404F1C800002114220025B1
:1016E00017F0C0FF43F63D204BF29543C0F60000D3
:1016F00043F6392143F62D22C0F6020304F1C80C4B
:10170000C0F60001C0F600028CE82700C4F8D8300B
:10171000B0BD0000002B08BF70472DE9F0479AB01C
:101720000D469A46EB6A17468146D2E90010D2E987
:101730000262CDE91610189619923BB92C6BB4F5DC
:10174000807F03D16C6BB4F5807F1AD0101A711AA8
:10175000421C288EAE8E013105F14004CDE9000611
:1017600016A8029400F0F6F816AED7E900014CCEA8
:10177000199C0244304416925A1818906018179217
:101780001990D9F808200DF1480816A94046FFF72E
:10179000E1FAA0B1E96903A8002215F083F9012854
:1017A0000DD1CDE9007803AF484629463A460023DB
:1017B000CDF808A006F0F0F9384615F03DF91AB05A
:1017C000BDE8F04770470000002B08BF70472DE9C7
:1017D000F04FA1B08A46C9691446064612A80022F5
:1017E000994615F05FF9012824D1E268BAF824700F
:1017F00094E80B0011920EAA0EACBAF826500BC258
:101800002046394608F0CAF920462946049508F0D2
:10181000BFF90121CEF20001B2680D910F98D26894
:101820000C9190420E98CDE90A11059006DD12A8A0
:1018300015F002F921B0BDE8F04F7047059806ADEC
:10184000384401380DF1480B0DF1280803900EE0E3
:101850001199049A0F9811441191B1681044C96804
:101860000F90059A884203980E921090DFDCB268C0
:101870000E98916888420BDDEAE700BF1098B268C5
:1018800038440E9910909068394481420E91DFDC03
:1018900028462146FFF75EFA0028EFD03046514631
:1018A0005A464346CDE90045CDF8089006F074F954
:1018B000E4E7000070B540F6F4760025C2F20006B9
:1018C000741954F8FC0F002818BF14F0EDFB2046E3
:1018D00000211C2217F0C6FE1C35702D08BF70BDFC
:1018E000EEE7000040F6F471C2F20001C96E04E0B8
:1018F0000A7E42F001020A764969002908BF704752
:101900004A688242F4D00A688242F5D1F0E70000CA
:10191000406940F6F471C2F20001C86670470000E9
:1019200040F6F471C2F20001CA6EC86642617047A7
:1019300040F6F470C2F2000000F5C870042100F017
:10194000A5B9000040F6F470C2F200003430202146
:1019500000F09CB92DE9F04F8BB0DDE9147A1D46FB
:10196000002B804608BFB7F5807F6FD0002303A807
:10197000169CCDE90333CDE90513CDE9073200F11B
:1019800018030293CDE909124FF0010B29463A469C
:10199000534600F1080600F11009CDE9004B1DF097
:1019A0002FFD304629463A465346CDE9004B1DF0FF
:1019B00027FD484629463A465346CDE9004B1DF0DF
:1019C0001FFD029829463A465346CDE9004B1DF0CB
:1019D00017FDDDE90321DDE90530079E099C9A42E8
:1019E0001F46B8BF1746A6422546B8BF3546AF4288
:1019F000B8BF3D469A42C8F80050C8BF1346A64239
:101A0000C8BF3446A342C8BF1C46621E089B0A9E3C
:101A1000C8F8082081420246B8BF0A46B34237469A
:101A2000B8BF1F46BA42B8BF17468142C8F8047013
:101A3000C8BF0846B342C8BF1E46B042C8BF06462C
:101A4000701EC8F80C000BB0BDE8F08FBAF5807FAF
:101A50008CD100200139013AC8E90000C8E902121E
:101A60000BB0BDE8F08F000040F6F470C2F2000049
:101A7000DC30182100F00AB9F0B589B004460D46F3
:101A800010B134B909B0F0BD0BF020F80446002CB9
:101A9000F8D020460BF0C6F80028F3D094F83A00AE
:101AA000800721D4002005B3CDE9050020460BF0C6
:101AB00021F80138079020460BF096F8013808907D
:101AC00001A805AA2946FFF745F90028DAD094F8BD
:101AD000390002280DD105AB0FCB04F13C0C8CE88A
:101AE0000F0001203EE000BFFEE7C4F85C0209B031
:101AF000F0BD01AA204630210BF0A8F80128C1D181
:101B0000D4F85C02B8B104F13C06002001AD002716
:101B100006EB001128460022FFF73EF90028B1D15C
:101B20000137D4F85C12B8B28142F1D800201F29E5
:101B300088BF012000E0002000280FBF0DF1040045
:101B40000020C4F85C020DF11400D4F85C12D0E956
:101B50000037D0E9026004EB0112C2E91160481CB1
:101B6000C2E90F37C4F85C022046332100220BF093
:101B70006DF809B0F0BD000010B500211622044632
:101B80001AF060FDC0B2002808BF10BD40F6F47125
:101B9000C2F200018A6D824209D3CA6D02EBC00114
:101BA000496852F830202046BDE81040104710BD6B
:101BB00010B540F6F474C2F20004A06DC00017F036
:101BC000FDFBE06513F0F4FFBDE8104014F026BD06
:101BD000F0B581B0002804460D4614BF60680020AF
:101BE00068B3002603E000BFA84738463FB321682A
:101BF000002D00EB01025768F6D1636883420DD0D7
:101C0000A3681268834211D0002A1CBF53185F607A
:101C1000002F18BF7A5014F047FAE6E7002F6760EC
:101C200014BF7E50A66014F03FFADEE7002AA260DF
:101C30000EBF666011444E6014F036FAD5E701B06D
:101C4000F0BD0000002814BF40680020704700006D
:101C5000002814BF4168002141B10268002000BF84
:101C60001144496801300029FAD1704700207047BB
:101C700000680844406870470068085870470000D2
:101C8000002814BF80680020704700000331002244
:101C900021F00301C0E900128260704710B50446CC
:101CA0000068083017F08AFB002808BF10BD2168C3
:101CB00000224250626801444A60616800291CBFEA
:101CC00022688850A1686060002908BFA06010BD2C
:101CD00070B5044600284FF0000013D00D4689B1BE
:101CE000D4E90006083017F069FBAE420BD0E8B12A
:101CF00021686A58002A1CBF531858604318425084
:101D000068505D6070BD0028FCD021680022425000
:101D1000626843185A606268002A18BF5050A16870
:101D20006060002918BF70BDA06070BD002070BD4C
:101D300010B504460068083017F040FB002808BFC3
:101D400010BD2168002342185360A2684250A16868
:101D500011B12268114448606168A060002908BF81
:101D6000606010BD28B1416809B9806808B10020E1
:101D70007047012070470000002808BF7047426884
:101D80008A4212D00268836851F802C08B4217D091
:101D900088184068BCF1000F1CBF0CEB02014860C2
:101DA000002818BF40F802C0704702681144496813
:101DB0000029416007BF00218160002088507047E2
:101DC0000021BCF1000FC0F808C018BF0CEB0200E6
:101DD0004160704710B5044606E000BF2068006807
:101DE000002808BF10BD206020688268002AF5D056
:101DF00021469047F2E700008068002814BF406A3F
:101E000000207047806800280EBF0020408DC0F37E
:101E1000812070472DE9F04383B090460028154695
:101E200046D00646008D894601430020019001AB53
:101E30003046612204F0ACFD012802D1019CFCB9BE
:101E400036E04BF25050C0F6020090F86100C00737
:101E500011D019F47F0F344608BF74685CB101AF2C
:101E6000218D204661223B4604F092FD0128E5D0F9
:101E70006468002CF4D161201EF0ACFE0446BCB1B5
:101E80002068A8B1308D02AB49EA00010020029021
:101E90003046622204F07CFD012811D1029801062F
:101EA00006D0236828F07F41C2B2204698470546F5
:101EB0004FEA186060F31F65284603B0BDE8F08361
:101EC0004BF25050C0F6020090F86200C00710D0EC
:101ED00019F47F0F08BF76685EB102AF318D3046CE
:101EE00062223B4604F054FD0128D7D07668002ECC
:101EF000F4D162201EF06EFE0106D2D1D8E70000B8
:101F00002DE9F04F97B00546408D40F008006885F8
:101F10002A858DB1209F41EA020A3C7A00209B4627
:101F200016468946019001AB28465146224604F0E8
:101F3000E7FE10B1019C04E0FEE720461EF04AFED9
:101F40000446A5F828B03F7A002049EA0B01019029
:101F500001AB28463A4604F0D3FE10B1DDF8048008
:101F600003E038461EF036FE8046688D209F20F044
:101F700008004445688503D102D117B0BDE8F08F51
:101F80002E853C7A0020019001AB2846514622461E
:101F900004F0B6FE08B1019E03E020461EF01AFED2
:101FA000064628464946A5F828B004F0F3FE006826
:101FB000397A32461EF042FF387A0C281ED147F695
:101FC000FF74A04518BFA64218D128461AF000FC9D
:101FD00000EBD077284619F045FC00EBD0700121CA
:101FE00001EB670201EB6000209F8242B8BF104600
:101FF000A64208BF0646A04508BF804640F6F470DA
:10200000C2F200001830FFF749FEB8B3C0E9036818
:102010000560397A01AC0171C0F808900546204688
:1020200006F04AFE4AF22900C0F6020002904AF287
:10203000BD20C0F6020004904AF2F910C0F602007A
:10204000059000200A904FF000400B90FF200C906C
:10205000388879880D9048420E90D7E903019DF8A1
:102060005220099002F0FE008DF8520020460195A2
:10207000089106F0D1FE17B0BDE8F08FFEE7000032
:1020800040F6F470C2F2000018301421FFF7FEBDD4
:102090002DE9F04F83B00446408D10F47C7F00F0B2
:1020A00024816FEA01096FEA020A002004250DF17C
:1020B00008084FF0000B019010E00220019087F01B
:1020C0000100002800F01381608D0BF1010BC0F3BB
:1020D0000510834505F1080580F00B81E06800EBF1
:1020E000CB01C9798907EFD4415B01EA0902B2FA51
:1020F00082F2520911EA0A0118BF01214A4003D0B5
:1021000001200028E0D1F2E050F83B601021304679
:1021100042461EF005FD88BB3046112142461EF0A6
:10212000FFFC58BB3046122142461EF0F9FC28BB8A
:102130003046132142461EF0F3FCF8B93046152113
:1021400042461EF0EDFCC8B93046142142461EF04E
:10215000E7FC98B93046162142461EF0E1FC68B90A
:1021600030466A2142461EF0DBFC38B930466B210E
:1021700042461EF0D5FC00287CD000BF0127002F6E
:102180009DD13046682142461EF0CAFC00287FF4EB
:1021900094AF3046692142461EF0C2FC00287FF40D
:1021A0008CAF30466E2142461EF0BAFC00287FF408
:1021B00084AF30466C2142461EF0B2FC00287FF40A
:1021C0007CAF30466D2142461EF0AAFC00287FF409
:1021D00074AF30463A2142461EF0A2FC00287FF43C
:1021E0006CAF30463B2142461EF09AFC00287FF43B
:1021F00064AF3046382142461EF092FC00287FF43E
:102200005CAF30463C2142461EF08AFC00287FF439
:1022100054AF30463E2142461EF082FC00287FF437
:102220004CAF3046402142461EF07AFC00287FF435
:1022300044AF3046412142461EF072FC00287FF434
:102240003CAF3046422142461EF06AFC00287FF433
:1022500034AF3046482142461EF062FC0199C9B2B3
:10226000012998BF012100284FF0020018BF014644
:10227000019124E730460121424601271EF050FC1F
:1022800000287FF47CAF3046022142461EF048FC15
:1022900000287FF473AF3046042142461EF040FC14
:1022A00000287FF46BAF3046052142461EF038FC13
:1022B00000287FF463AF3046062142461EF030FC12
:1022C00000287FF45BAF3046072142461EF028FC11
:1022D00000287FF453AF3046302142461EF020FCE8
:1022E0000746002818BF012749E7002000E0032027
:1022F00001900198C0B203B0BDE8F08F90B170B505
:1023000082B00446018D0020019001AB20466E2270
:1023100004F03EFB012806D10198002840F0C5805A
:102320001DE000BFFEE74BF25050C0F6020090F8EF
:102330006E00C0070DD065685DB101AE298D2846DD
:102340006E22334604F024FB0128E5D06D68002D91
:10235000F4D16E201EF03EFC002840F0A680218DB6
:102360000020019001AB20466C2204F011FB0128F3
:1023700005D10198B0F5807F40F097801BE04BF2CB
:102380005050C0F6020090F86C00C0070DD0656890
:102390005DB101AE298D28466C22334604F0F8FA6F
:1023A0000128E6D06D68002DF4D16C201EF012FCDF
:1023B000B0F5807F79D1218D0020019001AB2046BE
:1023C0006D2204F0E5FA012804D10198B0F5807F70
:1023D0006BD11CE04BF25050C0F6020090F86D003B
:1023E000C0070ED0656865B101AE00BF298D2846D3
:1023F0006D22334604F0CCFA0128E6D06D68002D3A
:10240000F4D16D201EF0E6FBB0F5807F4DD1218D1B
:102410000020019001AB2046712204F0B9FA012896
:1024200003D10198002840D119E04BF25050C0F67A
:10243000020090F87100C0070DD065685DB101AE73
:10244000298D28467122334604F0A2FA0128E8D0EB
:102450006D68002DF4D171201EF0BCFB28BB218DCE
:102460000020019001AB2046722204F091FA01286D
:1024700001D1019818E04BF25050C0F6020090F8DC
:102480007200C0070DD065685DB101AE298D284688
:102490007222334604F07CFA0128EAD06D68002DE0
:1024A000F4D172201EF096FB78B10225A06820B905
:1024B0004DB1204618F0C2F8A068418D21F440616A
:1024C00041EA8521418502B070BD20461AF004F82A
:1024D000FF2803D1204619F093FF08B10125E5E755
:1024E000204619F0BBFF0546002818BF0125DDE78F
:1024F00040F6F470C2F200000069704770470000B7
:10250000FF2804BF3F20704708B9002070478C287F
:1025100005D84BF25051C0F60201085C704740F6F6
:10252000F472C2F20002116B0029EED07330926A8D
:10253000C0B2824284BF085C7047E6E7002808BF4B
:1025400070472DE9F041164604460D461EF0E0FAAC
:1025500040F20408C2F20008D8F8002007462046DE
:1025600029469047D8F80020054620443146904738
:10257000391A8D4205D82044425D625501358D429D
:10258000FAD9BDE8F04170472DE9F04140F20C085E
:10259000C2F200081446D8F800200F4619461D461E
:1025A00006469047386040B12868D8F8002030448B
:1025B000002190472060BDE8F08100202060BDE848
:1025C000F08100002DE9F04F8BB0149E0446002EE0
:1025D0001CBF002030602CB300294FF0000000F039
:1025E00046812778002F00F04281159880071DD082
:1025F0000020012142F2014201E000BF0130235CD2
:102600000D2BFBD801FA03F71742F7D0002B18BFA8
:102610000130002E00F02B814FF0FF3131600BB004
:10262000BDE8F08F00200BB0BDE8F08F0020002740
:10263000CDE90321089002940899605C002800F01D
:10264000FF80012BC0F2FC8040F20C00C2F20000BF
:102650000C440268CDE905174FF0000B20460AA98B
:102660000793CDF828B0CDF824B0904705462078E0
:102670000A9900284FF0FF30099100F0AD804FF02B
:10268000000B4FF000084FF000090026019440F2C3
:102690000C01C2F200010A680746204609A99047CA
:1026A000824604982946524613F068FC039A002893
:1026B00009EB020118BF01EB00090799A9EB020021
:1026C00088423046D8BF4FF0FF30791CA5F10A018F
:1026D00018BF3846162967A707D8012202FA01F168
:1026E0000922C0F2400211426CD108F1010101221D
:1026F0000A2A05D0BB5C01329D42F9D162E000BFDD
:10270000BAF1000F28D04FF63062AAEB0202202A5D
:1027100074D32AF00F024FF610639A426ED0AAF5D6
:102720004152C02A6AD3AAF54752302A66D32AF00A
:102730007F02B2F53A5F61D02AF03F02B2F5405F06
:102740005CD0AAF59C42B2F5A44F57D34FF6017264
:10275000AAEB02025E2A51D32DB340F6E172B2EB2E
:10276000151F4BD0A5F54152C02A47D3A5F54752B6
:10277000302A43D325F07F02B2F53A5F3ED025F0F0
:102780003F02B2F5405F39D0A5F59C42B2F5A44FA7
:1027900034D34FF60172AA1A5E2A2FD34FF6306255
:1027A000AA1A1F2A2AD9421C08BFCB46DDE90926EE
:1027B000019C8846A35D5546002B0A927FF467AFC3
:1027C0000EE000BF66EA0001002908BFCB46414683
:1027D000421C07D116E000BF00264FF0000A00217E
:1027E000421C0FD0059900294FF000011CBF8B46F9
:1027F0000846DDE90673029C06460DE00A9ECB46BC
:10280000421CEFD1DDE90673029C21B10D2D08BFFA
:10281000BAF10A0F00D10A9E5F448EB10898217860
:1028200030440A2908900BD00D2909D0215C0D29CC
:1028300004D00A29A3EB0B037FF4FEAE013008900D
:102840000898149D049E70B940F20C00C2F200007A
:10285000026808A9204690472DB101463046002263
:1028600013F08CFB0746002D18BF2F6008980BB0A3
:10287000BDE8F08F202C2E3B3A2D5F295D7D0000B6
:102880002DE9F04381B038B314462AB30546884693
:102890001EF03EF9064620461EF03AF9E0B1074622
:1028A00040F20400C2F2000002682846414607EBED
:1028B00006099047C119894506D3EA19AB5D9355BE
:1028C000013EBB198B42F9D2284421463A4601B059
:1028D000BDE8F04316F0F4BD01B0BDE8F0830000A0
:1028E00070B582B004460B46CDE9001100200021EE
:1028F000224620F0F7FD451C284616F05FFD48B142
:10290000019B29462246064620F0ECFD304602B0E7
:1029100070BD00BFFEE7000010B540F6F474C2F2CF
:10292000000404F174001821FFF7B0F9D4F89C10EA
:10293000012084F8800000200029C4F8840008BF2A
:1029400010BDD4F8A000BDE8104008472DE9F04FB5
:1029500081B0E2B1DDF828909B4614460F468046D0
:102960004FF0010A06E000BF2AEA0400341A05EB22
:102970000B0764B1660806FB0B7540462946C8473D
:102980000128F1DAB0F1FF3F3446F2DD00E0002526
:10299000284601B0BDE8F08F2DE9F04F97B00F4603
:1029A000209943F26D3B1D461646C0F6000B4FF0D2
:1029B000000A0C91002F18BF8346CDF82CB0CDE94A
:1029C0000D720024285D0AEB0402002800F0DC836D
:1029D000252805D039463346D8470134F2E700BFF1
:1029E0002819DDF830E000F101094FF0000804E09B
:1029F00009F101090020002822D199F80000A0F176
:102A0000200110294FF00100F5D8DFE801F00D0C8E
:102A10000C100C0C0C0C0C0C0C090C130C0C1600F0
:102A200048F00408E4E7E6E748F00808E0E748F083
:102A30001008DDE748F00208DAE748F00108D7E7B8
:102A400099F80000A0F13001092913D8A9F101007B
:102A5000002700BF10F8011F07EB8703467801EB42
:102A60004301A6F130030A2BA1F13007F2D300F1A4
:102A7000010910E02A280DD15EF8040B0221074657
:102A8000002848BF474201EA907048EA000809F16F
:102A9000010900E0002799F800002E2820D14846BF
:102AA00010F8011F48F48068A1F13003092B2BD8DE
:102AB000A9F10100002500BF837805EB8501C678E8
:102AC00003EB4101A1F13005A6F130010A2900F123
:102AD0000100F1D3DDF82CB000F1020903E000BFE2
:102AE000DDF82CB0002599F8000068384FEA700036
:102AF00009282FD8DFE800F01F2A142E2E2E052ECD
:102B00002E0548F4807823E0DDF82CB02A2940F027
:102B10008C805EF8040B09F1020920EAE075E2E717
:102B2000484610F8011F6C2940F0828048F4407834
:102B300009F102090EE0484610F8011F682940F02B
:102B40007B8048F0C00809F1020903E048F40078EE
:102B500009F1010999F80000A0F12501532900F2BB
:102B600085811026DFE811F07C018201820182015B
:102B7000820182018201820182018201820182013D
:102B8000820182018201820182018201820182012D
:102B9000820182018201820182018201820182011D
:102BA000820182018201820182018201820182010D
:102BB0008201820182018201820182018201580028
:102BC00082018201820182018201820182019C00D4
:102BD00082018201820182018201820182018201DD
:102BE00082019B00730154008201820182018201F3
:102BF0005400820182018201820182016C0058002E
:102C0000820182016E0082015400820182019C00D7
:102C100028F010080A2643E0484610F8011F48F43F
:102C20008878562908BF81463AE0002581465AE750
:102C300048F4807881468DE748F08008814689E72E
:102C400008262DE05EF804AB09979AF800000027EB
:102C5000002850460ED02846002D08BF4FF0FF3008
:102C60004142504610F8016F013147F100030EB1A7
:102C7000002BF7D0A0EB0A00A8422C46CDF830E09C
:102C800038BF04465FEA48510A9158BF04465FEADC
:102C9000887740F19381DDF82CB0099E1FE202266F
:102CA00099F80000334640F00801582908BF48F061
:102CB00020089B46642803D0692818BF28F00C0818
:102CC0005FEA485148BF28F00108562830D06928EB
:102CD00001D0642848D15FEA885011D45FEAC85017
:102CE00000F18B805FEA486000F1EB80F246DEF88D
:102CF00000C0BE465FEA086048BF0FFA8CFCE5E002
:102D00000EF1070020F00700CDE9085705460A92AA
:102D1000426855F8080B50EA020108BF28F0100875
:102D20000792A1BB18F4806131D000229B465DE080
:102D30005EF8040B0D9F41680E9E0D6807EB0A01BB
:102D40000F95A6EB0A0203680B982144121BDDF8CD
:102D50002CB0CDF830E00095FFF71EFE504400EB9C
:102D6000040A09F101052CE65FEA885056D4BC46F6
:102D70005FEAC85000F116815FEA486000F16B819C
:102D8000DEF800705FEA086048BFBFB265E180EA24
:102D9000E270B0EBE27408F0200082EAE27180F0A9
:102DA000610061EBE277F63000229B460C9000BF99
:102DB0009246204639465A460023FDF743FA00FB67
:102DC0001B420C9B0A2A134438BF42F030030AF11D
:102DD0000102BAF11E0F0FAE06F80A3006D8B4EBA6
:102DE0000B0377F1000304460F46E1D207980FA9C1
:102DF0000C95C00FCDE90012C9E0F2465AF804CB99
:102E0000BE46BCF1000F08BF28F40478BCF1000FE7
:102E100036D118F4806033D0002385E00EF107002E
:102E200020F00700CDE90857476850F8084B0A9290
:102E30000C9054EA070008BF28F01008002840F062
:102E40007F8018F480607BD000229B469BE05FEA85
:102E50008875099740F1CE800D9F4FF0010870E111
:102E6000CDF830E002F1010A252003E002F1010A69
:102E7000CDF830E00D9F0E9E39463346D8477AE1B3
:102E800008F0200181F06101604601F1F60700239E
:102E9000BCF1000F48BFCCF1000000BFB0FBFBF15C
:102EA00001FB1B043E190A2C38BF44F030060FAC5E
:102EB000E6541E2B03F1010336D883450846EDD9AD
:102EC00032E0704690F800C0BE468246BCF1000F6A
:102ED00008BF28F44478BCF1000F04D118F48060D6
:102EE00001D000231EE008F0200181F0610160465E
:102EF00001F1F6070023BCF1000F48BFCCF1000040
:102F0000B0FBFBF101FB1B043E190A2C38BF44F057
:102F100030060FACE6541E2B03F1010302D88345A3
:102F20000846EDD90AF1040A4FEADC700FA9CDF882
:102F300030A0CDE90013CDE9020BCDE9045EBBE082
:102F400008F0200080F0610000F1F60A00229B46A4
:102F50001646204639465A460023FDF773F900FB12
:102F60001B420FAD0AEB02030A2A38BF42F03003BE
:102F7000721C1E2EAB5506D8B4EB0B0377F1000381
:102F800004460F46E4D20FA8CDE900020020CDE9A7
:102F9000020B0898DDF82CB0049009980D9F0A9A4E
:102FA00005908CE05EF8047B002F08BF28F40478BD
:102FB000B7BB18F4806033D0002173E0099EA642AD
:102FC00040F28A80CDE90775DDF82C80DDE90D75CA
:102FD00006F1010B341B00BF202039462B46561C3E
:102FE000C0473246013CF7D1099EDDE907755C46D2
:102FF000C34674E0022FC0F0A1800C9507F10108D0
:103000007E42DDE90D75F246202039462B46541CE0
:10301000D84701362246701CF6D10C9DD64690E06A
:1030200008F0200080F0610000F1F603002100BFED
:10303000B7FBFBF000FB1B769C190A2E38BF46F04D
:1030400030040FAE74541E2901F101012AD8BB458A
:103050000746EDD926E09EF80070002F08BF28F43F
:10306000447827B918F4806001D0002118E008F0F6
:10307000200080F0610000F1F6030021B7FBFBF0B7
:1030800000FB1B769C190A2E38BF46F030040FAEA9
:1030900074541E2901F1010102D8BB450746EDD940
:1030A0000EF1040E0FA8CDE900010020CDF830E0AC
:1030B000CDE9020BCDE9045CDDF82CB00D9F58463C
:1030C00039460E9ECDF81880334600F06BF88246E4
:1030D00009F10105FFF775BCDDF82CB001349AF851
:1030E000000098B10AF101080BE000BF013DDDE9E5
:1030F0000D13C0B202F1010AD84718F8010B52466D
:1031000028B10A990029F2D5002DEFD19246002F5F
:103110000ED50D9FA64232D9341B0E9E524620205A
:10312000394633460AF1010AD847013CF6D122E07C
:10313000DDE90D7609F10105FFF743BC0D9F4FF066
:1031400002081EF8040B0E9B3946744602F1010A70
:10315000D847002D0C9412D5099840450FD90E9EE2
:10316000A0EB080452462020394633460AF1010AF2
:10317000D847013CF6D109F10105FFF722BC0E9EAC
:1031800009F10105FFF71DBC1346B24228BF731EAB
:103190000020394614461A463346D847204617B011
:1031A000BDE8F08F2DE9F04F83B01E46129B0DF164
:1031B000300C8146DDE910E09CE820188A469F0724
:1031C000904602903AD450B1D8070AD013F00C00C0
:1031D00018BF0120119940EA0C00081A00E00020F5
:1031E0000290BEF1200F4FF0200538BF75465D45B7
:1031F0004FF020040DD90C98A5EB0B015844302258
:103200009B46FDF717FADDF840E0DDF838C05B4675
:10321000AB460298202838BF0446D80701D10C9D40
:103220000CE00C9D302100BFA34507D20BF1010239
:1032300005F80B1000289346F6D19346D80638D5EA
:103240000F98590507D4BBF1000F04D0F34512D0F5
:1032500002998B450FD0102819D1990604D4BBF1DF
:10326000200F01D2782018E0002910D5BBF1200FE3
:103270000DD2582011E0BBF101010A4618BFABF195
:103280000202102818BF0A4693461028E5D00228EB
:1032900007D1BBF11F0F04D8622005F80B000BF11A
:1032A000010BBBF11F0F9EBF302005F80B000BF187
:1032B000010BBBF11F0F0FD8BCF1000F01D02D2067
:1032C00006E0580703D4180706D5202000E02B207D
:1032D00005F80B000BF1010B4446019787B90298E2
:1032E000444658450CD902984246A0EB0B0700BF54
:1032F000202051463346541CC847013F2246F7D18F
:10330000BBF1000FCDF8008010D0A5F1010800BF7F
:1033100018F80B00514622463346ABF10105671CF5
:10332000C847002D3C46AB46F2D100E02746019845
:10333000002812D50099DDF80880781A40450CD293
:103340004D4200BF202051463A4633467C1CC847B8
:10335000281940452746F5D300E03C46204603B0F7
:10336000BDE8F08F9A4238BF88547047704700001C
:103370002DE9F04740F6F477C2F2000797F8A50070
:1033800007F1AC0480F0010087F8A5002046FEF7A5
:1033900059FC002808BFBDE8F08705464FF000083B
:1033A0004FF001094FF6FF7A08E000BF204629469A
:1033B000FEF75EFC0546002800F0AF80286D1FF088
:1033C0004DFC696B084468631FF060FC87F8A480BB
:1033D00095F8541097F8A520C1F34003934228654F
:1033E00000F0928001F0FD0040EA4200490785F8B4
:1033F000540020D4686B00281DD495F84E00C007F7
:1034000009D1A96939B128468847696AEA6A01443D
:1034100010446962E862284621F0A6FBE96809B118
:103420002846884795F8540040F0040085F8540079
:10343000284621F01BFB686B002865D4296B884265
:10344000C8BF6963296A28468847A96A88420FD09D
:103450006A680646A86212B128683146904797F814
:10346000A40028B9AA681AB128463146904700BF7F
:1034700097F8A400002847D1D5E90C01814243DB2D
:1034800095F85410CA0707D1B5F8443023B1534515
:103490001CBF013BA5F84430B5F8443013B9AAB9B4
:1034A000EB6B9BB1D5E90F3676426E6363B312B90D
:1034B000AA6B52426A6381F0010185F85410E96AEF
:1034C0006A6A6962C5E90B23E8631DE02046294664
:1034D000FEF752FC204687F8A490FEF7B3FB0146A6
:1034E000D7F8A80011B11FF053FD01E01FF03CFD1B
:1034F000296909B128468847696909B1284688477A
:10350000284612F0D1FD00BF97F8A40001287FF4EF
:103510004DAF2046FEF796FB4CE7BDE8F087000074
:10352000B0B5044640680D4610B12946FFF7F8FFD4
:103530002268002A08BFB0BD20462946BDE8B04039
:103540001047000070B50E680C46316849B196F816
:103550002220D20605D5216021460546FFF7F2FF5D
:10356000284621462660BDE87040FFF7D9BF00001D
:1035700006F088B806F0EAB8B0B596B00446406CDC
:1035800008B36D46284605F097FB43F6E560C0F6A4
:1035900002000190002009904FF000400A900120A5
:1035A0000B9048F6A150C0F60000089043F6E96081
:1035B000616CC0F602000490284600940C9105F05E
:1035C0002BFC16B0B0BD204616B0BDE8B04020F0D0
:1035D00037BC000070B50C0A032A4FEA114E2AD0FE
:1035E000022A17D0012A5DD102784578867852FAEE
:1035F00081FCBCF1FF0F55FA84F24FF0FF0328BFA6
:103600009C46FF2A56FA8EF628BF1A46FF2E38BF70
:1036100033461EE00378CAB2457886789A1A22EAC1
:10362000E27CE2B25FFA8EF3AA1AF31A22EAE2729D
:1036300023EAE3730DE00378CAB2457886785A43EB
:103640004FEA122CE2B25FFA8EF36A437343120A16
:103650001B0AB1F1807F38BF70BDB1F17D4F04D33B
:1036600080F800C04270837070BD090E047881F04C
:10367000FF065FFA8CF590F801C0744315FB014416
:10368000D2B206FB0CF590F802E012FB0152120ACE
:103690004270DAB206FB0EF312FB0131240A090A6A
:1036A0000470817070BD0000B0B5A1B180290A46D8
:1036B00009D3B1FA81F2C2F11A024FF0FF3303FAD3
:1036C00002F2D2430A447F2A09D84FEA920C00231F
:1036D000072B0FDD3AE000234FF0000C36E0B2FA82
:1036E00082F3C3F11A04E24082F0200CC3F1190303
:1036F000072B2BDC00F1140454F823204FF0FF3E7D
:103700000EFA0CF52A400CD052B192FAA2F2B2FA9B
:1037100082FC00EBC31202EB8C02526BC2B93AE09E
:10372000FEE702695D1C0EFA05F512EA050E09D0E6
:103730009EFAAEF2B2FA82F354F82320BEF1000FE3
:10374000E2D103E00022BEF1000FDDD1002212B36E
:10375000556825F003058D4201D200BFFEE7D4680D
:10376000E4B19168E1B100EBC315CC60A16005EB59
:103770008C0454F8345F95420DD1814221600AD106
:1037800000EB83054FF0010E6C690EFA0CF134EA80
:103790000101696105D01046B0BD00BFFEE700BF62
:1037A000FEE701690EFA03F3994301611046B0BDCB
:1037B000F0B54A68032A09D922F003030A1D9B18B1
:1037C00006D05D68EC0704D10846F0BDFEE700BFF7
:1037D000FEE77F2D04D84FEA950E4FF0000C0AE06B
:1037E00025F00305B5FA85FCCCF11A04E54085F017
:1037F000200ECCF1190CDD6875B39C6874B3E560DC
:10380000AC6000EBCC1505EB8E0555F8346F9E428D
:1038100011D184422C600ED100EB8C0501276E691A
:1038200007FA0EF4A6436E6105D1066907FA0CF794
:1038300026EA070707614868032811D95B6823F067
:10384000030318440430032848600BD920F0030018
:1038500081500846F0BD00BFFEE700BFFEE700BF95
:10386000FEE700BFFEE7000070B531B122B14B6842
:10387000DD0704D1FEE700BFFEE7002070BD23F0A6
:10388000030402F110039C4211D2486803280DD9A9
:1038900020F0030201F10800835823F00203835053
:1038A0004A6822F001024A6070BD00BFFEE701F1E4
:1038B000080E02EB0E03DD1D1E1D25F00305AE42B2
:1038C00001D000BFFEE7A3F1040CA31ADCF804400A
:1038D000043B04F003041C430B2BCCF8044029D90F
:1038E0004B6803F003031A434A60DCF80420032A00
:1038F00022D922F00304325942F002023251DCF89C
:103900000420344442F00103CCF804304B6844F8FE
:1039100004CC032B12D923F00303734443F8041C93
:1039200042F003037F2ACCF8043008D84FEA920E05
:1039300000230FE0FEE700BFFEE700BFFEE722F036
:103940000302B2FA82F3C3F11A06F24082F0200EAB
:10395000C3F1190300EBC31202EB8E0454F8342FA9
:10396000B2B1BCF1000F15D0CCE90220C2F80CC0F6
:103970000122066902FA03F52E43066100EB83007B
:10398000436902FA0EF21A43C4F800C042617CE7B0
:10399000FEE700BFFEE70000B0B582B0044613F0BA
:1039A0003FFE054613F080FE38B1616C204621646D
:1039B00002B0BDE8B04019F0A5BAE06A012118F0E4
:1039C00081FF28B1204602B0BDE8B04011F0AABE88
:1039D000204601211AF0CCFD4FF6FF71E06AA16488
:1039E000012116F0ABF82046222100221BF0A2F89C
:1039F000D4E9100181420BD06064019001AA2046F5
:103A00001E211BF097F801280DD1204619F07AFAF3
:103A1000284613F053FE042805D1204617F01CFF5A
:103A2000002112F073FF02B0B0BD0000C11C0028DD
:103A300018BF21F00300704712F036BB033015F0B9
:103A4000BDBC00002DE9F04F93B091468A460E9020
:103A5000C87849F6913149F69D32C0F60001C0F6AA
:103A600000020D9310F0010008BF0A4649F62D31FF
:103A7000069249F60132C0F60001C0F600020B467C
:103A800008BF13460C93002808BF0A464CF2C141F8
:103A9000C0F601010A924CF2D1420B46C0F6010277
:103AA00008BF134600284CF2C940DDF88080DDF8DD
:103AB00078B00B934CF2B943C0F60100C0F6010395
:103AC00008BF0A460146099208BF1946079108BF78
:103AD0000346089303E000BF5FEACC7057D0D8F8E4
:103AE0001420002A53D0D8E90101D8F81030A0EBF7
:103AF000010E0C33002106E01F68AEEB070E013A01
:103B000003F1180306D01F7AFF07F5D15F68394427
:103B1000F5E700BFD8F81420CAB3002200234FF005
:103B2000000C14E0387D4FF0010C40F001003875B6
:103B3000D8F81000AEEB060E10440469C660091BED
:103B4000D8F814000133834202F11802C4D2D8F825
:103B5000107017443E7DF607F2D1B9B19EFBF1F625
:103B60003D69D7E9014075438542B8BF2846844284
:103B700004DD7E68AE42DBD0D4E700BFBE68B5424C
:103B8000B8BF2E46AE42D3D0CCE700BFFEE70E98BA
:103B90000021272218F056FD9AF80070D8F80C1072
:103BA000FB1EDBB202293A46B8BF0222032B4FF0BC
:103BB000FF3328BF3A4653FA82F3042B27D8D8F8AC
:103BC0000420DFE803F0031E0E150600ABEB020134
:103BD0001EE0ABEB0202013992FBF1F400210591EA
:103BE00018E0ABEB0202013192FBF1F4059411E015
:103BF000ABEB020292FBF1F404EBD4714910059196
:103C000008E0ABEB020101EBD171491000E00021AB
:103C1000059100249AF80310DDE90D56C9075FFAF3
:103C200080FB08D0BBF1010F05D1304617F090FDA5
:103C30000599014405913046494617F069FC002872
:103C400018BFA94502D113B0BDE8F08F07461F98F1
:103C5000CDF810B020440124C0F20604039004E023
:103C60000027002F18BFA945EDD03846214618F08F
:103C700031FE60B19AF80300400700F14F81B0684F
:103C800009F10109018D8945C0F24D81E8E7384607
:103C90000021812218F0D6FC000610D0D8F81400BC
:103CA00050B1D8F810100C3151F80C2CBA420BD08E
:103CB000013801F11801F7D14FF0000B06E0788DC3
:103CC00020F44060788532E0D1F800B09AF8031013
:103CD000788DC9074FF4006120F4406008BF4FF4AD
:103CE0008061084407F114040C99788520468847C0
:103CF00083451CD0384619F005F907F114030FCBA2
:103D00000DF13C0C8CE80F00069A2046594690476E
:103D100038462C210FAA1AF00DFF384617F0FCFD8B
:103D200025213A461AF006FF384619F0EBF89AF8C2
:103D3000010001281ED0049E02282AD1D8F80000D4
:103D40000A99013020F0010407F114008847201A75
:103D5000099A00EBD075384600219047089A04462E
:103D6000384600219047201A00EBD070401000EB3D
:103D7000650012E00A99D8F8005007F1140088474E
:103D8000089A04463846002190472044049E281A89
:103D900003E0099A3846002190479AF803100290F0
:103DA000C90708D0012E06D10C9907F114008847E5
:103DB0000599091A0591384600216A2218F042FC3B
:103DC0000446384600216B2218F03CFC0646384673
:103DD00018F0FEFC0546384617F044FD04F0C041DB
:103DE000B1F1005F13D124F0C041B1F5FA6F0EDCE0
:103DF000B1F57A7FC8BFC1F57A7148F21F526943A5
:103E0000C5F2EB1251FB02F14A1102EBD17406F03C
:103E1000C041B1F1005F019413D126F0C041B1F56A
:103E2000FA6F0EDCB1F57A7FC8BFC1F57A714843ED
:103E300048F21F51C5F2EB1150FB01F0411101EBAB
:103E4000D076394651F814BF9AF8030000914C68B7
:103E500002993546C0070E4607D00B9A38460E46E3
:103E600000219047059A314686189AF80300C0074A
:103E700005D10B9A384600219047059901441C98BA
:103E8000019A1044A0EB0B0000EB060B1D98284490
:103E9000001B44185BEA040016D0384619F032F8CB
:103EA00007F114030FCB07F1140C58445A44214472
:103EB00023448CE80F00384619F024F83846594658
:103EC0002246002319F0B0F89AF80300C0070498BE
:103ED00006D0012804D103980599091A059113E029
:103EE00000980C9988470B9A8346384600219047E2
:103EF000079A04463846002190470399059A1144D1
:103F000059442144084405909AF80300DDE90D5610
:103F10000124C0F2060440077FF5B1AEB9F10109F2
:103F2000FFF69EAEB068006850F8297099E6000070
:103F300070B582B0044611F091FD0546204611F09F
:103F400089FD0646284617F0E7FC0B2E044609D0EB
:103F50002E2E49D1E16A2046002202B0BDE8704011
:103F60001DF068BB13F05CFB10B1007A01283BD058
:103F70006946284617F06AFD94F8300010F00C0FDF
:103F800014D0284617F0E4FB0546204600212722DE
:103F900018F058FBC0B2009905EBD572012808BF94
:103FA000494201EB620090FBF5F009E0284617F06A
:103FB00099FB019900EBD07201EB620191FBF0F0EB
:103FC000E66A20EAE07513F02BFB02460028204643
:103FD000294618BF01221DF02DFBB54204D0204612
:103FE0001E2100221AF0A6FD02B070BD90F86420D8
:103FF00002F00103994208BF704710B584B0002950
:1040000018BF012102F0FE02114480F86410C16A59
:10401000D0E9142ED0F858C0D1E90513C46D0A4474
:10402000614402911919009203EB0E020391694653
:10403000019218F07FFF04B0BDE810407047000007
:1040400080B521F07F40114608F064FB20F07F40EE
:1040500080BD00002DE9F04F83B08346806B019056
:104060009BF8110008F070FBBBF818408246E00096
:10407000B0FBFAF7BBF81660BBF8140031460E220D
:104080003B4609F007FB38B38046BBF81200D8F86E
:104090001090000706FB04F522D49BF80C0010B327
:1040A000012828D10198002400680C2100220294E4
:1040B000009012F0A5F940B9009802AB49462A4693
:1040C00012F0C2F8B0FA80F0440914B10298A84284
:1040D00011D0404609F048FB002003B0BDE8F08F46
:1040E0000198203001E00BF1080000682A460169C0
:1040F000484615F0E5F99BF811000E283CD007FB67
:1041000006FCBCF1000F37D04FF0FF3000FA0AF088
:1041100009EB050209EB0C01013A6FEA000E0027DA
:1041200000200EE0002409EB0A0010F0F80307F16C
:104130000107A1F101011CBF013A002067450C7085
:104140001AD215785FFA80F925FA09F010EA0E0004
:10415000E8D0BAF1070F0446E5D85546044600BF3B
:10416000C5F10803DBB2554400FA03F3EEB2082EA2
:1041700044EA0304F4D3D6E70198CBF81C80C0F8D6
:104180001C80012003B0BDE8F08F00002DE9F0474E
:1041900082B0856B477CD5F80080072F01D10824B9
:1041A0000DE0082F03D0092F03D1402407E010248D
:1041B00005E0A7F10A01B1FA81F149098C02418AAF
:1041C000090728D4017B41B3012943D18146204608
:1041D00015F0F4F8F0B106464FF0000A40460C2105
:1041E0000022CDF804A012F00BF948B901AB40460B
:1041F0003146224612F028F8B0FA80F04FEA501A01
:10420000BAF1000F23D00198A04220D16E60484639
:1042100005E000BFFEE7296A00E081680E69072F0C
:10422000066201D102210DE0082F03D0092F03D12E
:10423000102107E0042105E0A7F10A01B1FA81F19C
:10424000490909024162012002B0BDE8F087304609
:1042500011F02AFF002002B0BDE8F08740F2F00024
:10426000C2F200000168002908BF704701680139E7
:1042700001607047B0B5044611F0ECFB05462046DE
:1042800011F024FC332D18BFB0BDD0F8F00218B1E6
:10429000BDE8B0401EF07CBEB0BD000070B5044665
:1042A000806900281CBF002070BD0E460846002112
:1042B000012209F0BFFDE0B1054630460AF018FAC8
:1042C000B8B10220A864287905F138010928C4E9A9
:1042D0000161A5614AD8DFE800F005321D240F39DD
:1042E000402B4516E96C05F1080220460EF0F6FE5B
:1042F0003CE04FF0FF3070BDE96C05F1080220464C
:104300000FF0C6F832E0E96C05F1080220460FF024
:10431000D3FF2BE0E96C05F1080220460EF01EF9F0
:1043200024E0E96C05F1080220460FF0D5F81DE005
:10433000E96C05F1080220460BF082FA16E0E96C00
:1043400005F1080220460DF047FE0FE0E96C05F18B
:10435000080220460FF0CCF808E0E96C20460FF088
:10436000E7F803E0E96C204610F08AFDA06903211C
:1043700081640020A06109F0D5FC012070BD00001F
:104380002DE9F047A0B088464FF6FF718A4248D029
:10439000C46A1746B4F8289006464B4504D0608D91
:1043A000238540F00800608520464FF480215A2282
:1043B00018F048F9054620464FF480215C2218F099
:1043C00041F9F16AD5F80CA005460846002117F01E
:1043D0009FF80AEB0501806901FB07F205EBD57335
:1043E000A2EB630210441D900844F16A01381F904B
:1043F0004869C9696D461C9028461E910BF0E8F982
:1044000020464FF480212A4618F0D8FB1CAA4046CB
:1044100029460AF06BFF608DA4F8289020F0080070
:10442000608520B0BDE8F0872DE9F043A1B0884653
:104430004FF6FF718A4224D0C46A1646B4F8289019
:1044400007464B4504D0608D238540F00800608509
:104450000CAD284609F0F4FD20464FF480212A4691
:1044600018F0E4FA20464FF480215C2218F0EAF8B4
:10447000F96A1A9041B10846002117F049F8074639
:104480002FB921B0BDE8F0830027002FF9D0149890
:104490001A99C068BA69084401EBD171A2EB6101B5
:1044A00000FB061108F118060844013809910B9029
:1044B0006069E16908900A9104A808AA3146FCF7EE
:1044C00049FCB8B196E80B00F2688DE80B0004AB2C
:1044D00003920FCB07F1140586E80F00384613F05E
:1044E00039FF13900CA940462A4609F079FD9DE852
:1044F0000F000FC6608DA4F8289020F0080060859A
:1045000021B0BDE8F08300002DE9F0438FB01C46D8
:1045100015468146C9B30879082836D80122824059
:1045200012F48B7F40D088680F46D0E90062D0E952
:1045300002300E21CDE90230981B0130CDE9006236
:1045400009F0F4FA304401380DF1100802904046A9
:1045500000212C2215F086F8B87DB98A8DF8270045
:10456000F87DADF8251039688DF8240008690A90A7
:1045700068460C900889B9680D90022004918DF866
:104580002C00484641460BF0F5FB002D18BF002CCF
:1045900002D10FB0BDE8F0834846294622460EF00E
:1045A0009DFD0FB0BDE8F0830028EED10DF110089D
:1045B00040460F4608F05EFEF87DB97D8DF8380064
:1045C000B88AFA68ADF8300001208DF832100D90ED
:1045D000484641460DF000FDD7E700002DE9F04FB9
:1045E000F7B0054611F03AFA8046806B002800F0DB
:1045F0008381284611F052FAB8F82A10824641F019
:104600000800A8F82A0073A9404617F0D7F8B8F8B0
:104610002A0022AE40F00800B8F828404FF0000908
:10462000A8F82A003046A8F828900BF0D1F80DAF72
:10463000384609F005FD40464FF4A021324618F0F7
:10464000BDFA40464FF4A0213A4618F0EFF9B8F809
:104650002A00002120F00800A8F82A004046102275
:104660000894A8F8284017F0EDFF06904046002176
:10467000112217F0E7FF059040460021122217F0A3
:10468000E1FF049040460021132217F0DBFFD8F829
:1046900038100390002900F0298146F6D606C0F6AE
:1046A00003060020CDF81CA01AE000BF9DF84401CD
:1046B000CDF814A1DDF81CA040F040008DF84401B5
:1046C00050463EA96FAACDF8009109F089FCD8F8B0
:1046D000380009F1010981450BF1010080F00681E4
:1046E000D8F82C10A0F1010B01EB8000071F00BFD0
:1046F00057F8040F3146FBF7F7FF00280BF1010BC9
:10470000F6D0D8F8340050F82900C106DFD44106AD
:1047100008D4D8F8401000248945089908BF01F052
:104720002E0400E08024D8F83010C0F300204FEAB7
:10473000091350EA040C01EB0912C958DDE9737042
:10474000D2E90135D26839446F9100EB03017091D1
:1047500007EB050110447191729025D0B8F82A003A
:1047600053AD40F00800A8F82A002846A8F828C051
:104770000BF02EF83EAF384609F062FC40464FF48D
:10478000A0212A4618F01AFA40464FF4A0213A46D2
:1047900018F04CF9B8F82A00089920F00800A8F899
:1047A0002810A8F82A0009E053A822A9702214F0C2
:1047B00087FE3EA80DA9542214F082FE9DF89501B3
:1047C000CDF85491C10637D500F0E00000F10F019B
:1047D0008DF89511D8F81410049B6F9A19448A42E9
:1047E00004BF40F00B008DF89501D8F81C00039A27
:1047F0007199801A814205D19DF8950100F0F7006A
:104800008DF89501D8F81800069A709910448142E5
:1048100005D19DF8950100F0FD008DF89501D8F8BF
:104820002000059A7299801A814205D19DF8950160
:1048300000F0FE008DF8950170987299A206A1EB28
:1048400000010A9201F1010208D5D8F8341001EBF9
:1048500089014978490744BF801A709009925046EF
:1048600053A96FAA0AF042FDD8F82C00759D50F8A4
:104870002BA073984C99281A469A4D9B9DF843514A
:104880000130CDE900100BA8514602951CF0C0FF85
:104890006FAB0FCBDDE90B574419121B013202EB52
:1048A000D27200EB6202C819181A013000EBD07006
:1048B0006F9201EB600051190A9A7191C119002A97
:1048C000709072917FF5F2AED8F8342002EB890235
:1048D000527852077FF5EAAE099A02EBD272A0EB4A
:1048E00062007090A1EB62007290DFE6B8F82A00D7
:1048F00020F00800A8F82A0077B0BDE8F08F00008B
:104900002DE9F04FDDB0044611F0A8F80546204629
:1049100011F0C4F8079028460021302217F092FECB
:10492000074628460021122217F08CFE81462846B1
:104930000021132217F086FE83462846002110220C
:1049400017F080FE48AE8046304609F079FB2846D5
:104950004FF40031324618F069F8D5F830A0BAF1BA
:10496000000F2ED1A86B28AE38B31CF0D1F8F8B1E7
:104970006A6C0021002300BF934208D0AC6B645CDA
:1049800001310A2C08BF01338842F5D10146884223
:1049900011D9421A002000BF7E280DD8AB6B0B4402
:1049A0001B5C0A2B08D0335401308242F4D103E05F
:1049B00000218842EDD80020064400200DF1A00A15
:1049C000307009EB070006900BEB0700059095F897
:1049D0004C00002100F00F000138B0FA80F04409CB
:1049E0002846272208EB070617F02CFE4FF0FF3170
:1049F00051FA80F0B0FA80F1686B4909002841EA69
:104A0000040B79D0049612F0FDFD0446022811D162
:104A10009DF86B01696B509ADDE956C36FF06046F3
:104A2000CDE901600AA8CDF800C01CF0F1FEDDE977
:104A30000A980DE0686B0AA912F02CF8BDF82C90CA
:104A4000BDF82E804FF0FF3101281CBF89468846F3
:104A50005F46BBF1000F05D06869069908442490B1
:104A6000484405E0E8690599401AA0EB0901249142
:104A7000D5F818B00138022C26900ED1049E696B2F
:104A80000BEB0600259040440138279007984F9182
:104A900048A924AA09F0A4FA2DE0284616F0E2FE5F
:104AA000A0EB080000EBD0700BEB600025904044B9
:104AB00001380AAC2790204609F070FA28464FF4D6
:104AC0000031224617F056FF09EBD97008EBD87178
:104AD00040104910CDE91A0128464FF400316E22EA
:104AE00017F0B0FD696B15900798119124AA214623
:104AF00009F008FA049EBB460AAC204609F0A0FA69
:104B000028460021224617F091FF9DF87300129A63
:104B1000DDE918736FF06041CDE9011008A8514636
:104B200000971CF075FEA869696B099A30442590BE
:104B30001044279049B1BBF1000F13D00898059A93
:104B4000E9690244891A249111E06C69284617F03A
:104B50003FFE0899401A00EBD07004EB60002490EF
:104B6000084405E0686906990844089924900844B7
:104B7000296B2690CDF844A029B99DF8740040F027
:104B800040008DF8740007980AA924AA09F028FAB1
:104B90005DB0BDE8F08F00002DE9F04FADF5117D5F
:104BA000044610F05BFF8146204610F077FF00F1CD
:104BB0001804054609F114018DA822460E91FCF750
:104BC000C9F8002800F03782E26894E80B008C9264
:104BD00089AA0BC28DAB0FCB119584E8070048461C
:104BE000002130220694E3604FF0000817F02AFD00
:104BF000054648460021102217F024FD0446484689
:104C00000021112217F01EFD824648460021122283
:104C100017F018FD0D9048460021132217F012FDE1
:104C20008346B9F82A0067AF40F00800B9F8286059
:104C3000A9F82A003846A9F828800AF0C9FD484694
:104C40004FF4A0213A4617F0B9FF36AF384609F0C5
:104C5000F7F948464FF4A0213A4617F0E7FEB9F8B5
:104C60002A000F9620F00800A9F82860D9F81860EB
:104C7000A9F82A00484617F03DF86119C0433144AD
:104C80000844CDE9858048460C94CDF80C8217F095
:104C900029F8804648460021272217F0D3FCD9F88E
:104CA0003010002900F0C3815FFA80FCBCF10100E4
:104CB00018BF01200D9A6FEA08012A446FEA0A071B
:104CC0000A446FEA0B030A971427C00005EB08019A
:104CD000BCF1010F08BF1C2704970B9308BF5A1A99
:104CE000059203904FF0000E4BAC4FF0000ACDF848
:104CF00040C000BFD9F83800869A50F82E10909B1B
:104D0000501C849050189A428690CDE9083280F267
:104D100083810498059A59F8000083AB1044039AE4
:104D20009850D9F82C00002800F0768101EBD17161
:104D300049104FF000080791CDF84CE010E000BF9B
:104D40004BACDDF840C0DDE9125ED9F82C000AEB6F
:104D5000060105F10108804501F1010A80F05C813E
:104D6000D9F8341051F82A20002A14BF1268002202
:104D7000BCF1010F149209D1839AD9F83C70531EEB
:104D8000859357F82830D21A839208E0859AD9F88B
:104D90003C70531C839357F828301A448592A0F135
:104DA000010BD84528D2839A859B0424A8EB0000E8
:104DB00001EB8A0104EB88070130002651F82640F8
:104DC00006EB0805002C1CBF24785FEAC47417D0DA
:104DD000D9F83C50BCF1010F3D4455F8265006F17E
:104DE000010619BF2B448593521B83928519E5D187
:104DF0004BAC5D4605E000BF0026454601E000BF24
:104E00004BAC86988E9988429FDB9DF8E521DDE9C1
:104E10008373859912955507CDE91D731F912090D5
:104E20000CD50E9D0D9C2D6825444BACAF4205DD85
:104E3000789D05EBD575A7EB65071D9797070BD5F3
:104E4000D9F818700C9D2F44BB4205DD789F07EB05
:104E5000D777A3EB67031E9313070ED5D9F81C3041
:104E60000B9F3B44994208DA789B03EBD37703F01E
:104E70000103194401EB67011F91D1070ED0D9F846
:104E800020100A9A1144884208DA789901EBD1720D
:104E900001F00101084400EB62002090D9F84400C1
:104EA000864519D1D9F84000804515D1B9F82800B8
:104EB00000F0600100F00E00202908BF203070B91A
:104EC000204667A9702214F0FBFA21A836A95422C3
:104ED00014F0F6FA27E000BF00200028F0D0B9F85F
:104EE0002A10A9F8280041F00800A9F82A00204655
:104EF0000AF06EFC21AD284609F0A2F848464FF4AE
:104F0000A021224617F05AFE48464FF4A0212A4617
:104F100017F08CFDB9F82A000F9920F00800A9F8C5
:104F20002810A9F82A0013982146CDE94D08CDE9AB
:104F3000230811981DAA0AF0D9F9D9F8340050F8BD
:104F40002A0000283FF4FDAE48464FF4A02112226B
:104F500017F078FB044648464FF4A021132217F0BF
:104F600071FB834648464FF4A021102217F06AFBDC
:104F7000804648464FF4A021112217F063FB83AF0F
:104F80008ECF381A0D1902EB08011A91D9F8341096
:104F90001C9051F82A00A3EB0B041995149F00F103
:104FA0000801DDE92F03651B3E9A0135C7F3400C6C
:104FB000CDE9000587A81B94CDF808C01CF028FC9B
:104FC00017F0020F0BD184988899079A01EBD171E1
:104FD0001044A0EB610200EB61001A921C9015A82E
:104FE0008DA983AAFBF7B6FE119D00283FF4A8AE59
:104FF00015AB0FCB069C84E80F00D9F8340021A92B
:1050000050F82A0019AA08302890284608F0E8FF2E
:105010008DAB0FCB0FC493E6DDE90810884206DAAA
:10502000D9F830000EF1010E8645FFF463AE89AB6E
:105030000FCB069F0FC70DF5117DBDE8F08F000067
:105040002DE9F04FB5B000F1140201F11804054646
:10505000049131A8039211462246FBF77BFE0028FB
:1050600000F00581E26894E80B0030922DAA0BC293
:1050700031AB0FCB009484E80700284600211222B0
:10508000E36017F0DFFA834628460021102217F06C
:10509000D9FA0590284616F05BFB0746284616F01D
:1050A00021FB05F12C080A904046FCF7D1FD0B9539
:1050B00005460B980021152217F0C4FA0B99096FC9
:1050C0004A1E02FB10701522B0FBF1F60B984FF44C
:1050D000A02117F0B7FA8146681E09FB1060002175
:1050E000B0FBF5F00B9D0128D8BF01200C9028469D
:1050F000302217F0A7FA8246284616F0CFFC089017
:10510000284616F0E7FD0DAC099020460AF060FB3A
:1051100028464FF4A021224617F050FD9DF8630069
:10512000296A00F0F8008DF86300FF208DF8540024
:1051300014982C6F0844002C2C9000F09480B81B1D
:10514000089902900AEB0B00401A01900C980599FF
:10515000471E00EB09060DA82130089005F1440018
:10516000079005F14C0006900A98084450444FF00F
:10517000000A059005E000BF2C6F0AF1010AA24564
:1051800071D20398CDF840A0D0F800B000200F9065
:105190004046FCF757FD0028EED081460298611E7C
:1051A0000AFB00F0B0FBF1F00199084483440AE0E7
:1051B0000F98B34401300F9040464946FCF758FD24
:1051C00081460028D8D099F81000C007F4D195F88E
:1051D00074000BEB0703000754BFD9F80C00002044
:1051E0000C99319A59449142CDF8A4B02B93DFDD4C
:1051F00033998B45C0DC99F80A10089C2A6FA1707E
:10520000B9F808105044B0FBF2F3218003FB120000
:1052100099F810200425D9F8041005EA9202079C99
:105220003D463746069E51F82030A458B2581B1B05
:10523000121B0A9C3E46634393FBF2F2099C2F46E5
:105240000B9D2244059CAB69A21A1A442A9251F87C
:1052500020006FF000418842AAD004980DA929AA25
:105260000AF044F8A4E72DAB0FCB009F0FC735B071
:10527000BDE8F08F2DE9F04FD3B000F1140A01F131
:1052800018040E4607464FA851462246FBF762FD1A
:10529000002800F017824FAB0FCBD6E906B8D6E94D
:1052A00008C584E80F00386F0228C0F00B8238462A
:1052B00000213022CDE9035C17F0C4F905463846D9
:1052C0000021122217F0BEF91A9038460021102250
:1052D00017F0B8F91790384616F03AFA0D9038469C
:1052E00016F000FA796918903846169116F0D6FB38
:1052F000D7F818901590384616F0ECFC14904BA88F
:1053000051462246FBF726FD002800F0DB813BAC2E
:105310002046AA4609F088FA38464FF4A0212246D2
:1053200017F0E8FB1FAC20460AF052FA38464FF45B
:105330000031224617F042FC38464FF4003101227A
:1053400017F080F9139000EBD07438464FF4003119
:1053500002226510199717F075F9074600EBD07017
:105360004110B5EB600F47980F9500EBD0720E918E
:10537000B8BF6110B1EB620F05DD9DF8291141F056
:1053800010018DF829110128CDE9018B0A9605D16C
:105390009DF8290140F010008DF829011999086F36
:1053A00001F12C0510902846FCF752FC01383D9085
:1053B000219028460B95FCF763FC002800F07981CA
:1053C00084461A98169A504417991044159A5144D5
:1053D000801A179001EB09001499BA1E401A169012
:1053E0003BA800F108041FA92C3001F10806069023
:1053F00001F121001999059001F14400159001F186
:105400004C00149004980F99084401301290C8433E
:1054100002990844119013980021023810F1030FEB
:105420004FF0000038BF012012F1030F38BF0121F7
:1054300008400C90CDE907640EE000BF08681368CF
:1054400001380860581E10600B986146FCF714FC88
:105450008446002800F02D819CF810002146C007EA
:105460003246EBD19CF80A00069900278870BCF8F8
:10547000080004220880BCF80800059908809CF800
:105480000A003E9788701998229790F874000007D8
:1054900058BFDCF80C701798149B429044909CF80D
:1054A0001010DCF8040002EA9101159A50F8270068
:1054B00052585958189B801A5843891A90FBF1F09A
:1054C000169A191A199801EB020A006FCDF814A167
:1054D0000028CDF868C000F0B880DDF834E04FF067
:1054E0000009B8460025CDF824A01397DDE9441340
:1054F000129A42919142439300F3AB80421EB9FB52
:10550000F2F2179C7E192244B6FBF0F7449207FB97
:105510001064DCF804009CF81070A34650F8246076
:10552000042404EA9707159CDDF850C0E4595CF8A0
:105530000770361B3F1B189C002D04FB06F696FBDC
:10554000F7F7A4EB0707169C07EB040645963FD038
:10555000119FBA423CDB109CDDF868C0744543DA09
:105560000F980A1A08440E991D90581A1C90581842
:105570001E90DCF804001B9250F828106FF00042D7
:1055800091426FF000410ED050F82B0088420AD0B3
:105590000A983BA93E9509F013F9DDF868C0DDF8DB
:1055A00034E06FF000410C98139FA0B1DCF80400C8
:1055B00050F8280088420ED0681E22900A981FA931
:1055C0001BAA09F093FEDDF868C0DDF834E002E0C4
:1055D000139FDDF868C0D84619980135006FF14473
:1055E0008542FFF483AF34E050F828306FF0004775
:1055F000BB4201D1139FEEE750F82B00D846B842CA
:1056000001D1139FE8E7099BB342D8BF3346B245A7
:10561000A8BFB246139F914201D10993DCE7501E07
:105620004490CDE9420A9A4508BF01330A983BA944
:10563000459309F0C5F84498DDF868C0DDF834E01A
:1056400001304490B2460996C6E7DDF834E0002503
:10565000B8461099079E089C714531462246BFF610
:10566000EDAE8542314622467FF4E8AEDCF8040018
:105670006FF0004150F828002246884231463FF43E
:10568000DDAEDDE944010F9BC21A1B920E9A18444D
:105690001D90881A1C9088181E90681E22900A98E7
:1056A0001FA91BAA09F022FEDDF868C03146224678
:1056B000C4E60A98029981610199C1610499016265
:1056C0000399416253B0BDE8F08F00002DE9F04F1F
:1056D000C9B00A4602F11804824600F1140106928C
:1056E00045A82246FBF736FB002800F0A481E268BB
:1056F00094E80B00449241AA0BC245AB0FCB84E85F
:105700000F0050460021302216F09CFF8346504681
:105710000021122216F096FF109050460021102210
:1057200016F090FF0D90504616F012F80E9050466D
:1057300015F0D8FFDAF814100F9050460A9116F0C1
:10574000ADF9DAF818100C905046099116F0C2FA2B
:1057500031AF0B90384609F067F850464FF4A0215E
:105760003A4617F0C7F915AF38460AF031F85046F7
:105770004FF400313A4617F021FA50464FF4003109
:10578000012216F05FFF804600EBD07750464FF4C1
:10579000003102227D1016F055FF064600EBD07056
:1057A0004110B5EB600F3D98089500EBD072079162
:1057B000B8BF7910B1EB620F05DD9DF8011141F022
:1057C00010018DF80111012805D19DF8010140F06B
:1057D00010008DF801010AF12C000590FCF750FA39
:1057E000002800F02881814610980A9958440844FE
:1057F0000D990C9A5944A0EB020B0998B21E08446B
:105800000B996FF00045401A31A92C31029115A96E
:10581000213101910AF154010D910AF15C010C91C1
:105820000AF144010B910AF14C010A910F990844C5
:105830000990A8F1020010F1030F4FF000004FF0A3
:10584000000138BF012012F1030F38BF01210840C9
:105850000490039412E000BF3398179901303390FD
:10586000481C41AB17900FCB039C0FC405984946C9
:10587000FCF702FA8146002800F0DD8099F810005C
:10588000C007F3D199F80A000299019A8870B9F813
:1058900008000880B9F80800108099F80A109AF8F2
:1058A00074009170000754BFD9F80C804FF00008C5
:1058B000CDF8E0B0CDF8E8B0D9F8040050F82800F1
:1058C0000A2805D10120CEF200003A9027E000BF5F
:1058D00099F810100424D9F8000004EA51020D9937
:1058E0000C9B50F8280089589A580E9F0023009767
:1058F00013F0A2FD58443A9099F81010D9F804001A
:1059000004EA91020B990A9B50F8280089589A588A
:105910000F9F0023009713F08FFD0999081A3B9001
:10592000DAF87000002897D00024CDF8408005E018
:105930001097DAF87000013484428DD2DDE93A1212
:10594000389108EB0401B1FBF0F3399203FB101717
:10595000D9F8040050F82700A842E9D099F81010AF
:10596000042505EA91020B990A9B89589A580F9EC3
:105970000023009613F060FD09990C9B081A3B90D8
:1059800099F81010D9F8000005EA51020D9950F865
:10599000270089589A580E9E0023009613F04CFD5C
:1059A00058443A9044B3DDE93801089B6FF0004554
:1059B000C21A1844079B1390C81A1290C818149062
:1059C000D9F804001099119250F82110A94211D071
:1059D00050F82700A8420DD0069831A9349408F059
:1059E000EFFE049830B1069815A911AA189409F091
:1059F0007DFC00BF109701E06FF00045DAF8700001
:105A0000844296D1D9F8040050F82700A84290D0DB
:105A1000DDE93A01089B1894C21A1192079A1844BA
:105A20001390881A129088181490069815A911AA34
:105A300009F05CFC7DE749B0BDE8F08FF0B581B0BE
:105A4000054610F00BF80446284610F02FF80746DC
:105A5000C06C4068B0F5A02F4BD138460FF09CFBCE
:105A6000064638460FF092FB0546304341D0F86CAD
:105A70008768062F05DD20463946402205F0BCFB2D
:105A800048B1002E1CBF002086F82000002D1CBF4E
:105A9000002085F82800204639464FF4004205F0E2
:105AA000ABFBE0B135B120461DF0C0F82884000CF6
:105AB00085F8220056B1662086F8200020461DF0A9
:105AC000B5F8A6F82100000C86F82300204605F062
:105AD00091FB26B1B84204BFB22086F820002046D0
